:020000040800F2
:1000000070400020010100082D1700089D15000810
:1000100029170008490100088D170008000000009A
:10002000000000000000000000000000351700087C
:100030004D010008000000003117000839170008C2
:100040001B0100081B0100081B0100081B01000820
:100050001B0100081B0100081B0100081B01000810
:100060001B0100081B0100081B0100081B01000800
:100070001B0100081B0100081B0100081B010008F0
:100080001B0100081B0100081B0100081B010008E0
:100090001B0100081B0100081B0100081B010008D0
:1000A0001B0100081B0100081B0100081B010008C0
:1000B0001B0100081B0100081B0100081B010008B0
:1000C0001B0100081B0100081B0100081B010008A0
:1000D0001B0100081B0100081B0100081B01000890
:1000E0001B0100081B0100081B010008DFF80CD0F1
:1000F00000F018F8004800479117000870400020F1
:100100000648804706480047FEE7FEE7FEE7FEE7B1
:10011000FEE7FEE7FEE7FEE7FEE7FEE73D17000825
:10012000ED000008064C074D06E0E06840F00103D2
:1001300094E8070098471034AC42F6D3FFF7DAFF93
:10014000E418000804190008FEE7000070470000EA
:10015000B0B5044600F022F9054640F20000C2F2B4
:1001600000000078611C18BF044400BF00F016F9BD
:10017000401BA042FAD3B0BD2DE9F04F82B00E680B
:10018000002E00F0088140F2004E41F200424FF68E
:10019000FF77C4F2010EC4F20102042300244FF0E1
:1001A000010CC1F210074FF00F0B4FF0000A4FF097
:1001B0000009904208BF032300930CFA0AF816EADC
:1001C000080F3ED04BE00123BB402B4342F82C30BC
:1001D000D1F804B04FF6FF775FEACB32DEF80020AB
:1001E00054BF22EA080242EA0802CEF80020DEF8F4
:1001F00004205FEA8B3354BF22EA080242EA080275
:10020000CEF80420DEF808205FEACB2354BF22EAB0
:10021000080242EA0802CEF8082040F20C425FEAE7
:100220008B23C4F201024FF0010C13461268C1F295
:1002300010074FF00F0B54BF22EA080242EA0802EF
:100240001A600E680AF1010A36FA0AF204F104048F
:1002500000F0A1800CFA0AF816EA080FF1D04A68FB
:10026000BA4211DC122A51D8DFE802F0340A4246C1
:1002700050505050505050505050505050494D00D8
:10028000D1F80C9042E000BF4FF6FF73C1F221039A
:100290009A420FDC0023C1F211039A421AD00023C4
:1002A000C1F212039A4215D00023C1F221039A42EF
:1002B00010D02BE00023C1F222039A420AD000237F
:1002C000C1F231039A4205D00023C1F232039A42AF
:1002D0001CD100BF8A6842B1012A14BFC0F8148043
:1002E000C0F810804FF0080910E04FF004090DE04D
:1002F000CA6802F1080909E04FF0000906E0CA687F
:1003000002F1040902E0CA6802F10C092246034620
:10031000BAF1080F24BF203A04331D680BFA02F625
:10032000B54309FA02F22A431A60CA79D2067FF568
:1003300088AF41F21802C4F20202134612684FEA73
:100340009A0C42F001021A601A6804F00C0702F0DD
:1003500001020192019AAEF57E7252F82C3040F6FD
:1003600000060BFA07F5C4F20106B04223EA0505C0
:100370000FD040F60043C4F2010398423FF423AF8C
:1003800041F20003C4F201039842009B08BF02231C
:100390001AE7002318E702B0BDE8F08F40F26800CA
:1003A000C2F2000000687047B0B570B3044690F820
:1003B0003D0028B9002084F83C00204600F03AFDBA
:1003C000242084F83D002068016821F001010160CB
:1003D00000F0E6FE48F28041C0F21E0140F6001235
:1003E00088424FF00001C0F23D02656838BF01212C
:1003F000904248F2A1624FF00003C0F2010238BF00
:100400000123954238BF0B460BB10120B0BD4DF61C
:100410008361C4F21B31A0FB011221684FEA924CA8
:100420004B6823F03F0343EA92424A600A6A48F26B
:10043000A063C0F201039D4222F03F0313D80CF1E8
:10044000010201386D001A43B0FBF5F00A62CA6977
:1004500001304CF6FF736FF31F3022EA030C0428BF
:1004600098BF04203FE04FF496720CFB02FC44F668
:10047000D352C1F26202ACFB022C012202EB9C12AD
:100480001A430A62CA69A3684CF6FF7C22EA0C0C84
:10049000A0F1010E9BB119206843BEFBF0F00422CD
:1004A000013062F31F30000512D09BB11920684360
:1004B000BEFBF0F00422013062F31F3011E005EBC7
:1004C0004500BEFBF0F001306FF31F300005ECD1AA
:1004D000012008E005EB4500BEFBF0F001306FF3B2
:1004E0001F3040F4004040EA0C00C8610868D4E9BD
:1004F000072320F0C000104318430860886848F2C2
:10050000FF3204F10C0C90439CE82C10184310436C
:100510008860C86820F0FF00284340EA0C00C860EB
:10052000086840F00100086000202021206484F861
:100530003D10206384F83E00B0BD00002DE9F04777
:1005400082B01F46164688460446FFF727FF94F8F8
:100550003D10202920D1DDF82890054620688169CA
:10056000890715D5FFF71AFF401B1A28F6D300207C
:100570002021206384F83D1084F83E00216C41F076
:100580002001216484F83C00022002B0BDE8F0871D
:1005900094F83C10012903D1022002B0BDE8F08795
:1005A000012184F83C100168C90703D1016841F0BA
:1005B00001010160016821F400610160222184F8D9
:1005C0003D10102184F83E10002121646662678589
:1005D000618D21850021CFF6FF71E162E16A026839
:1005E00011F5803F42F48062026018BF01291AD1E0
:1005F000016841F48071016019F101061CD0416964
:10060000B9F1000F01F0010100F08380F1B900BFE2
:10061000FFF7C4FE401B484500F2A98020684169ED
:10062000C907F5D012E00829E2D0216B1129DFD0EB
:10063000E2E74169C90709D14169C90706D14169A2
:10064000C90704BF41695FEAC171F2D02169B1F500
:10065000804F1DD148F00101C9B2002E016100F0A8
:10066000EA804169B9F1000F01F0020171D000295F
:1006700040F0E4804169490500F1F480FFF78EFE07
:10068000401B484573D8206841698907F2D5D5E0F9
:10069000062101EAD81707F1F001016176B341693B
:1006A000B9F1000F01F0080155D000296AD1416964
:1006B000490500F1D780FFF771FE401B484556D829
:1006C000206841690907F2D51BE04169490500F13D
:1006D000C9804169090714D44169490500F1C28004
:1006E000416909070DD44169490500F1BB804169A1
:1006F000090706D44169490500F1B4804169090739
:10070000E3D55FFA88F10161FEB1B9F1000F3CD188
:1007100025E000299AD128E04169490500F1A2802D
:100720004169890740D44169490500F19B804169CD
:10073000890739D44169490500F1948041698907E5
:1007400032D44169490500F18D8041698907E3D5BB
:100750002AE039B172E029B15FFA88F1016141699B
:10076000890721D4416949057CD4FFF717FE002091
:100770002021206384F83D1084F83E00216C41F074
:10078000200180E05FFA88F10161416989070BD49B
:100790004169490566D4FFF701FE401B4845E6D88C
:1007A000206841698907F3D50021019141690191D0
:1007B000816901910199016841F480710160A6B1DC
:1007C0004169B9F1000F01F0010100F0A681B1B952
:1007D000FFF7E4FD401B4845C9D820684169C907B7
:1007E000F6D00CE04169C90709D14169C90706D1B2
:1007F0004169C90704BF41695FEAC171F2D047F09E
:10080000F101002E01617FF42CAF14E0416949052C
:1008100028D44169890711D44169490522D4416925
:1008200089070BD4416949051CD44169890705D45E
:100830004169490516D441698907E7D5218D012908
:1008400028D000293DD100210191416901918169A0
:1008500001910199016841F400710160208D002827
:1008600056D14FE1016841F4007101606FF480617D
:10087000416100202021206384F83D1084F83E006F
:10088000216C41F00401216484F83C00012002B095
:10089000BDE8F087016821F480610160EFF310800A
:1008A00072B600200190206841690191816901912F
:1008B0000199016841F40071016062B6208D38BB76
:1008C00020E10268022915D142F400610160EFF3D2
:1008D000108072B600200190206841690191816901
:1008E00001910199016821F48061016062B6208D57
:1008F00070B907E142F48061016000210191416912
:100900000191806901900198208D002800F0FA8003
:100910004FF0000A4FF0200887B2032F14D8012FA0
:1009200025D1B9F1000F48D02068014651F8142FA5
:10093000520647D40868C00600F1F980FFF72EFD83
:10094000401B4845F0D912E7B9F1000F1DD02068CF
:10095000014651F8142F52061CD40868C00600F155
:10096000E680FFF71BFD401B4845F0D9FFE666B364
:10097000B9F1000F37D020684069400771D4FFF704
:100980000DFD401B4845F6D933E020684169490612
:1009900040F1C7800069616A0870606A2268411C82
:1009A000208D616201382085638D013B6385536929
:1009B0005B0740F1A480106997E02068416949060F
:1009C00040F1AF800069616A8FE0206841694907A2
:1009D00047D44169490744D44169490741D4416931
:1009E0004907F3D53DE020684069400739D4FFF757
:1009F000D5FCC4F830A084F83D8084F83EA0206C7B
:100A000040F020002064012084F83CA0022F2BD06D
:100A100000287FF43BAF2068016821F48061016009
:100A2000EFF3108072B62068616A00690870606A2E
:100A3000218D00F10100A1F1010160622185618D2C
:100A4000A1F10101618546B3B9F1000F34D02168ED
:100A50004869400735D4FFF7A1FC401B4845F6D94B
:100A600085E60020022FD3D100287FF40FAFEFF3EB
:100A7000108072B62068616A026842F400720260F7
:100A800000690870606A218D01306062481E20850F
:100A9000608D0138608562B624E021684A6952079A
:100AA00010D44A6952075CBF4A695FEA427209D4AE
:100AB0004A695207F2D505E021684A69520701D414
:100AC00053E6606A0A6842F400720A6009690170BC
:100AD000606A218D01306062481E2085608D01387A
:100AE000608562B62068616A00690870606A218D5D
:100AF00001306062481E2085618D013961850104E5
:100B00007FF40AAF202084F83D00002084F83E00E6
:100B100084F83C0002B0BDE8F08700293FF425AE20
:100B20006DE650F8141FC90601467FF51EAE6FF042
:100B30001000086000202021206384F83D1084F814
:100B40003E00216C9FE600002DE9F04381B01E4677
:100B5000174689460446FFF721FC94F83D102029EA
:100B600020D1DDF82080054620688169890715D5E8
:100B7000FFF714FC401B1A28F6D300202021206325
:100B800084F83D1084F83E00216C41F0200121647E
:100B900084F83C00022001B0BDE8F08394F83C10DA
:100BA000012903D1022001B0BDE8F083012184F8BE
:100BB0003C100168C90703D1016841F001010160DF
:100BC000016821F400610160212184F83D101021A9
:100BD00084F83E100021216467626685618D21855D
:100BE0000021CFF6FF71E162E16A11F5803F18BF85
:100BF000012917D1016841F48071016018F10106E3
:100C000019D04169B8F1000F01F0010172D0E1B9CA
:100C1000FFF7C4FB401B404577D820684169C907EE
:100C2000F6D012E00829E5D0216B1229E2D0E5E7E1
:100C30004169C90709D14169C90706D14169C90795
:100C400004BF41695FEAC171F2D02169B1F5804FFB
:100C50001BD1FE2101EA0901002E01617DD041690D
:100C6000B8F1000F01F0020147D0002978D14169A5
:100C7000490500F1AB80FFF791FB401B404544D88C
:100C8000206841698907F2D56AE0062101EAD91195
:100C9000F031016156B34169B8F1000F01F008016C
:100CA0002DD0E9BB4169490500F19080FFF776FB43
:100CB000401B404529D8206841690907F2D52FE03B
:100CC0004169490500F182804169090728D44169D9
:100CD00049057BD44169090722D44169490575D486
:100CE000416909071CD4416949056FD44169090765
:100CF000E6D515E00029A8D105E009B130E079B9C1
:100D00004169490562D4FFF749FB00202021206397
:100D100084F83D1084F83E00216C41F0200166E02B
:100D2000FF2101EA0901002E01617FF498AF14E070
:100D3000416949054AD44169890711D44169490586
:100D400044D4416989070BD4416949053ED44169BE
:100D5000890705D44169490538D441698907E7D530
:100D60000021009141690091806900900098208DD8
:100D700048B94FE0204641462A4600F011FCE8BB46
:100D8000208D002846D0204641462A4600F06AFCC5
:100D9000A0BB606A2168024612F8013B0B616262E7
:100DA000628D013A6285228D571E27854B693F046B
:100DB00018BF13F00403DDD0437802300B6160628A
:100DC000608D01386085901E2085D3E7016841F46D
:100DD000007101606FF48061416100202021206377
:100DE00084F83D1084F83E00216C41F00401216438
:100DF00084F83C00012001B0BDE8F083206C042899
:100E0000F8D12068016841F400710160012001B04F
:100E1000BDE8F0832068016841F400710160202082
:100E200084F83D00002084F83E0084F83C0001B0C6
:100E3000BDE8F08310B586B0016845F60000C4F245
:100E4000000081424FF00001CDE90411CDE902110B
:100E500001D006B010BD41F21804C4F202042168AA
:100E600000F5344041F008012160216801F00801DB
:100E7000019101994FF440610291122103910321E4
:100E8000059102A9FFF778F9606840F4800060607E
:100E9000606800F480000190019806B010BD000069
:100EA00040F2000040F26801C2F20000C2F200010C
:100EB00000780A68104408607047000080B542F26C
:100EC0000000C4F20200016841F01001016003203B
:100ED00000F07AF8002000F005F800F027F8002074
:100EE00080BD000070B540F20006C2F2000640F27C
:100EF00008013278C2F200014FF47A730968B3FB3B
:100F0000F2F20446B1FBF2F1084600F031FB0F2C7F
:100F10004FF0010508D838B94FF0FF3021460022C4
:100F2000002500F025F87460284670BD82B041F2BB
:100F30001800C4F202000168022241F001010160C0
:100F4000016801F0010101910199416841F080516E
:100F50004160406800F08050009000980420C4F286
:100F60000100016862F31A61016002B0704700007D
:100F700010B54EF60C5CCEF2000CDCF80030C3F37A
:100F8000022E8EF00704042C28BF0424BEF10303B4
:100F90004FF0FF3E0EFA04F438BF0023A1439940FE
:100FA0000EFA03F39A4300F00F03043B114363442A
:100FB00009010C3300F16042B0F1FF3FC8BF02F5F8
:100FC0006443197010BD00004EF60C51CEF20001C2
:100FD0000A684FF6FF031A4060F30A2242F080606D
:100FE00040F0FD70086070472DE9F04381B00028A3
:100FF00000F0AB8042F20008C4F202080446D8F8C0
:1010000000000D4600F0070088420DD2D8F800001D
:1010100020F007002843C8F80000D8F8000000F0CE
:101020000700A84240F09180206841F2040981073E
:10103000C4F2020917D5410705D5D9F8001041F4CB
:10104000E061C9F80010010705D5D9F8001041F496
:101050006051C9F80010D9F80010A26821F0F00121
:101060001143C9F80010C0072DD06068012804D1D1
:1010700059F8041C890368D508E059F8041C0228B3
:1010800002D1890161D501E089075ED5D9F8001048
:1010900021F003010843C9F80000FFF77FF9064675
:1010A00041F28837D9F80000616800F00C00B0EB1D
:1010B000810F08D0FFF772F9801BB842F2D90320E4
:1010C00001B0BDE8F083D8F8000000F00700A842A6
:1010D0000CD9D8F8000020F007002843C8F8000019
:1010E000D8F8000000F00700A8422ED12068410780
:1010F00007D5D9F80010E26821F4E0611143C9F87E
:101100000010000708D5D9F80000216920F46050CC
:1011100040EAC100C9F80000D9F8002002F00C0034
:10112000082841F20020C0F27A001ED141F6D20315
:10113000C2F38341C0F60003595CD20309D440F6E0
:101140000010C0F23D0048430FE0012001B0BDE8AF
:10115000F083D9F8002041F6B803C2F34042C0F64C
:1011600000039A5C4843B0FBF2F0D9F8001041F656
:10117000BA02C1F30311C0F60002515C40F208024A
:1011800020FA01F140F20400C2F200000068C2F24D
:1011900000021160FFF7A6FE002001B0BDE8F08359
:1011A00040F2080041F20401C2F20000C4F2020160
:1011B0000068096841F6CA02C1F30221C0F60002C4
:1011C000515CC840704700002DE9F04182B0002812
:1011D00000F0A5800446007841F20006C007C4F282
:1011E00002064CD0706800F00C00042817D070681C
:1011F00000F00C00082802D17068C0030FD46068AA
:1012000098B1B0F5803F06D03168B0F5A02F22D15B
:1012100041F480203060306840F4803021E0306854
:1012200080032CD5606850BB79E0306820F48030B2
:101230003060306820F480203060FFF7AFF805465A
:10124000306880031BD5FFF7A9F8401B64284FF0D6
:101250000300F5D988E121F480303060306820F453
:1012600080203060FFF79AF8054600BF30688003A1
:1012700005D4FFF793F8401B6428F7D940E12078A4
:1012800080072FD5706810F00C0F07D0706800F041
:101290000C00082809D17068C00306D430688007A4
:1012A00019D5206901283AD115E02069002840F2BB
:1012B0000000C4F2422000F0E38001210160FFF74A
:1012C0006DF805463068800705D4FFF767F8401BC6
:1012D0000228F7D914E13068616920F0F80040EA8B
:1012E000C1003060207800071DD4207840072ED43C
:1012F000E569002D00F03781706800F00C000828C7
:1013000071D1012D0BD07068216A00F480328A42BD
:1013100005D1616A00F47010884200F02481012038
:1013200002B0BDE8F081A06900B30020C4F2422001
:101330000121C0F88014FFF731F80546706A800774
:1013400074D4FFF72BF8401B0228F7D9D8E0F069D6
:10135000C0001ED4F0694FF0010840F08050F061E9
:10136000F06900F080500090009814E00020C4F272
:1013700042200021C0F88014FFF710F8054600BF96
:10138000706A8007B1D5FFF709F8401B0228F7D92A
:10139000B6E04FF0000847F20007C4F200073868D3
:1013A000C00510D4386840F480703860FEF7F6FF4E
:1013B000054600BF3868C00505D4FEF7EFFF401BA7
:1013C0006428F7D99CE0E06800286BD0012806D09B
:1013D000316A052840F07F8041F004003062306AB5
:1013E00040F001007DE00027C4F24227002038666B
:1013F000FEF7D4FF022D05460CD100BF30688001F6
:1014000040F18F80FEF7CAFF401B02284FF0030017
:10141000F4D9A9E03068800140F1A580FEF7BEFF55
:10142000401B02284FF00300F4D99DE040F2080071
:10143000C2F20000006844F6D351C1F26201A0FB81
:101440000101480A019000BF00BF0198411E002819
:1014500001913FF44AAF00BF0198411E002801915D
:101460003FF443AF00BF0198411E002801913FF4B3
:101470003CAF00BF0198411E00280191E4D134E740
:1014800000210160FEF78AFF054600BF3068800733
:101490007FF528AFFEF782FF401B02284FF00300C4
:1014A000F4D961E0306A20F001003062306A20F047
:1014B00004003062FEF772FF054641F2883700BF34
:1014C000306A800720D5FEF769FF401BB8424FF015
:1014D0000300F5D948E021F001003062306A20F0C5
:1014E00004003062FEF75AFF054641F2883700BF1C
:1014F000306A800708D4FEF751FF401BB842F7D985
:10150000032002B0BDE8F081B8F1000F3FF4F0AE67
:10151000F06920F08050F061E569002D7FF4ECAEB9
:1015200021E0206AB0F5803F05D17168A26821F4FE
:101530000031114371607168626A21F474111043C3
:101540000843706001203866FEF728FF044600BF9C
:101550003068800107D4FEF721FF001B02284FF0FE
:101560000300F5D900E0002002B0BDE8F0810000E2
:10157000411E0020B0EB116F1CBF012070474EF2DE
:101580001002CEF2000251604EF62351CEF200015D
:10159000F0230B700721906011607047FEE7000098
:1015A00070B50368044653F8140F400737D40E464D
:1015B00009B3701C25D100BF1868400531D41868E4
:1015C00040072CD4186840052BD41868400726D44F
:1015D0001868400525D41868400720D418684005CD
:1015E0001FD4186840074FF0000048BF70BD18684E
:1015F0004005E4D515E01868400512D4FEF7CEFE8C
:1016000021E01546186840050BD4FEF7C7FE401BC5
:10161000B04218D8236853F8140F4007F2D50020C1
:1016200070BD6FF48060186000202021206384F872
:101630003D1084F83E00216C41F00401216484F8DF
:101640003C00012070BD00202021206384F83D1063
:1016500084F83E00216C41F02001216484F83C00B4
:10166000012070BD70B50368044653F8140F0006DE
:1016700037D40E4609B3701C25D100BF1868400549
:1016800031D4186800062CD4186840052BD418688B
:10169000000626D41868400525D41868000620D412
:1016A000186840051FD4186800064FF0000048BFB6
:1016B00070BD18684005E4D515E01868400512D4DF
:1016C000FEF76CFE21E01546186840050BD4FEF7C6
:1016D00065FE401BB04218D8236853F8140F00066B
:1016E000F2D5002070BD6FF48060186000202021CA
:1016F000206384F83D1084F83E00216C41F0040121
:10170000216484F83C00012070BD0020202120636A
:1017100084F83D1084F83E00216C41F020012164E2
:1017200084F83C00012070BDFEE700007047000017
:101730007047000070470000FFF7B2BB41F20000A5
:10174000C4F202000168002241F001010160416819
:10175000CFF6FF021140416001684FF6FF72CFF6ED
:10176000F66211400160016821F480210160416846
:1017700021F4FE0141604FF41F0181604EF60850D4
:10178000CEF200004FF0006101607047FEE70000FC
:1017900090B0FFF793FB002601204FF48031CDE994
:1017A0000B66CDE909660690CDE907160A9002247A
:1017B0004FF4C010CDE90D410F9006A8FFF704FDCE
:1017C0000F2001A951C14FF48060CDE9040601A8A2
:1017D0000221FFF709FC41F21800C4F2020001687F
:1017E00040F2100441F0200101600168C2F20004DF
:1017F00001F02001069106990168254641F0080193
:101800000160016801F0080106910699016841F044
:101810000401016000684FF4804100F0040006906C
:10182000069845F60000C4F2000045F8040F48F29F
:10183000A060C0F20100C4E902062846C4E90461C0
:10184000C4E90666C4E90866FEF7AEFDE72020702D
:101850004FF47A7728468021224601230097FFF72C
:1018600073F9661C28468021324601230097FEF753
:1018700065FE251D28468021224601230097FFF79B
:1018800063F928468021324601230097FEF756FE71
:101890004FF47A70FEF75CFCECE702E008C8121F18
:1018A00008C1002AFAD170477047002001E001C149
:1018B000121F002AFBD17047010200000000000047
:1018C00000000102030406070809000000000102ED
:1018D000030402030405060708090A0B0C0D0E0F8A
:1018E000101000000819000800000020100000007F
:1018F0009A18000818190008100000206040000025
:10190000AA180008000000000100000010000000FC
:081910000024F40000000000B7
:04000005080000ED02
:00000001FF
