:020000040800F2
:10000000784000200101000819280008A5200008F8
:1000100015280008F1070008052A00080000000064
:10002000000000000000000000000000CD280008D3
:10003000F5070008000000008D28000825290008A9
:100040001B0100081B0100081B0100081B01000820
:100050001B0100081B0100081B0100081B01000810
:100060001B0100081B0100081B0100081B01000800
:100070001B0100081B0100081B0100081B010008F0
:100080001B0100081B0100081B0100081B010008E0
:100090001B0100081B0100081B0100081B010008D0
:1000A0001B0100081B0100081B0100081B010008C0
:1000B0001B0100081B0100081B0100081B010008B0
:1000C0001B0100081B0100081B0100081B010008A0
:1000D0001B0100081B0100081B0100081B01000890
:1000E0001B0100081B0100081B010008DFF80CD0F1
:1000F00000F05CFB00480047052C00087840002019
:100100000648804706480047FEE7FEE7FEE7FEE7B1
:10011000FEE7FEE7FEE7FEE7FEE7FEE7A5290008AB
:10012000ED000008D2B201E000F8012B491EFBD21D
:1001300070470022F6E710B513460A4604461946F2
:10014000FFF7F0FF204610BDF0B480EA0102D40FA3
:100150004200B2EB410F02D20246084611464A0065
:1001600042D0C30DDDB2C1F3C752AD1A202D35DA2E
:10017000C1F3160141F4000204B15242C5F1200658
:1001800002FA06F12A411044B3EBD05F23D0C4B188
:10019000012DA0EBC35009DCF0BC4FF0004202EA95
:1001A000C352DBB200F5000000F075BA400000F168
:1001B000807000EBC350A0F1807040EAD17049001C
:1001C00009E0490841EAC071A0EBC35000F5000006
:1001D000400800EBC350F0BC00F054BA6142012269
:1001E00002EB4101001BF6E7F0BC704781F00041D3
:1001F000AAE780F00040A7E780EA010210B502F00C
:100200000043400022D04A001FD0010E01EB1261D2
:10021000C0F35600C2F3560240F4000042F400025C
:10022000A0FB022000047F39140400D0401C50EAD7
:10023000124001D44000491EC2B20C0604EBD0109B
:10024000401C4008802A02D003E0002010BD20F0AE
:100250000100002900DA0020184310BD30B480EA04
:10026000010202F0004530F0004221F0004013D0BE
:1002700090B1C30DD40DC2F31601C0F31600E41AF9
:1002800041F4000140F400027D34914201D3641C2A
:1002900000E04900002C02DA30BC002070474FF427
:1002A00000000023914201D3891A034340084FEA1A
:1002B0004101F7D151B1914202D14FF0004105E027
:1002C00002D24FF0010101E06FF0010103EBC450D5
:1002D000284430BC00F0D6B92DE9FE4F804681EAB3
:1002E0000300C00F0C46009021F0004123F00045B0
:1002F000B8EB0200A94105D24046214690461C4673
:100300000B46024623F00040104347D0270DC7F3A9
:100310000A00C3F30A510290401A019040286BDA98
:10032000C3F3130040F4801B0098924620B10023D1
:10033000D2EB030A63EB0B0B01985946C0F1400264
:10034000504600F07EF906460D4650465946019A41
:1003500000F086F910EB08006141002487EA115291
:1003600084EAE7731A4340D0009A62B3019A012AE3
:100370004FEA075215DC001B61EB02014FF000420F
:1003800002EA0752CDE90042001C41F580113246D5
:100390002B4600F0BDF903B0BDE8F08F4046214682
:1003A000F9E7001B61EB0201001C41F58013001806
:1003B0005B412018A2F5001747EB030140EAD57016
:1003C000B6196D4111E06D084FEA360645EAC07571
:1003D0004FEA0752001B61EB0201001C41F580113E
:1003E00049084FEA30000019514132462B4603B00C
:1003F000BDE8F04F00F07DB90098012240000023D5
:10040000D0EB020263EBE073009821464FEAE07400
:10041000B8EB000061EB0401E9E783F000435BE720
:1004200081F0004158E72DE9FE4F81EA030404F012
:10043000004421F0004100944FF0000B23F00043F2
:1004400050EA01045ED052EA03045BD0C3F30A54BD
:10045000C1F30A552C44A4F2F3340194A0FB0254D6
:10046000C1F3130141F48011C3F3130343F4801368
:1004700001FB024400FB034E840A970A44EA8154BC
:1004800047EA8357A4FB076802958D0A05FB078599
:100490004FEA932C04FB0C542705029D4FEA0658A3
:1004A00047EA1637B5EB08056EEB070C870E920E80
:1004B00047EA811742EA8312A7FB0201B6EB0B0160
:1004C00064EB00042B0D43EA0C335E1844EB1C5024
:1004D000DA465146E7FB0201C5F313044FEA0B333A
:1004E00043EA14534FEA0432019C43EA0603A4F1A1
:1004F0000C040294009CCDE900B400F009F903B0AB
:10050000BDE8F08F00200146F9E72DE9F04D81EAC2
:10051000030404F0004B21F0004514464FF0000A9C
:1005200023F0004150EA050220D054EA01021DD018
:10053000C5F30A570246C5F31303C1F31300C1F311
:100540000A5640F4801543F48013A7EB0608101BED
:10055000D64608F2FD3873EB050002D308F1010816
:1005600001E092185B41B8F1000F03DA0020014668
:10057000BDE8F08D00204FF48011064684460EE061
:10058000171B73EB050705D3121B63EB050306432B
:100590004CEA010C49084FEA300092185B4150EADE
:1005A0000107EDD152EA030012D082EA040083EA87
:1005B0000501084305D0101BAB4106D201220023E0
:1005C00006E000224FF0004302E06FF001025310FA
:1005D0001AEB06004CEB085110EB0A0041EB0B0143
:1005E000BDE8F04D00F085B80EB5C10F80EAE070AF
:1005F0000844CA07002140F233438DE80E000A4642
:100600000B4600F085F803B000BD01F0004330B4A4
:1006100021F0004150EA010206D00A0DA2F56072F5
:10062000C1F31301002A02DC30BC00207047440FE4
:1006300044EAC104C100E01830BC00EBC25000F035
:1006400021B8202A04DB203A00FA02F1002070478A
:100650009140C2F1200320FA03F319439040704700
:10066000202A06DBCB17203A41FA02F043EAE07376
:1006700006E041FA02F3D040C2F120029140084363
:10068000194670470029A8BF7047401C490008BFA1
:1006900020F00100704710B4B0FA80FC00FA0CF0B2
:1006A00050EA010404BF10BC704749B1CCF12004EA
:1006B00021FA04F411FA0CF118BF01212143084377
:1006C000A3EB0C01CB1D4FEA00614FEA102042BFA3
:1006D000002010BC704700EBC35010440029A4BF99
:1006E00010BC7047401C490008BF20F0010010BC3E
:1006F000704710B5141E73F1000408DA401C41F174
:10070000000192185B411A4301D120F0010010BD95
:100710002DE9F04D92469B4611B1B1FA81F202E00B
:10072000B0FA80F220329046FFF78BFF04460F4666
:1007300040EA0A0041EA0B0153465A46084313D0E7
:10074000114653EA010019D0C8F14002504600F0AA
:100750003FF805460E46504659464246FFF771FFA0
:10076000084305D0012004E020463946BDE8F08D5D
:100770000020054346EAE0762C4337430A98630598
:10078000E40AA0EB08000022FD0A44EA47540A30BC
:1007900002D500200146E9E7010510196941DDE9AC
:1007A000084500196941BDE8F04DA2E7064C074D28
:1007B00006E0E06840F0010394E807009847103431
:1007C000AC42F6D3FFF796FCE42D0008042E000897
:1007D000202A04DB203A21FA02F00021704721FA96
:1007E00002F3D040C2F120029140084319467047FD
:1007F000FFE7FEE7704700007047000080B584B057
:10080000039000F0B5F9029003980190019801302F
:10081000002809D0FFE740F20700C2F2000000788C
:10082000019908440190FFE7FFE700F0A1F9029960
:10083000401A0199884201D2FFE7F6E704B080BD73
:1008400090B00F900E9100200D900990FFE70E9848
:1008500000680D99C840002800F08781FFE70D98D7
:10086000012101FA00F00C900E9800680C990840E4
:100870000B900B980C99884240F07381FFE70E981B
:1008800040680028059051D0FFE7059801283AD02C
:10089000FFE7059802283FD0FFE70598032860D0BE
:1008A000FFE70598112832D0FFE70598122838D0C5
:1008B000FFE70020C1F211000599814236D0FFE721
:1008C0000020C1F21200059981422FD0FFE70020DD
:1008D000C1F221000599814228D0FFE70020C1F232
:1008E00022000599814221D0FFE70020C1F23100AA
:1008F000059981421AD0FFE70020C1F23200059924
:10090000814213D030E00E98C06809902DE00E9817
:10091000C0680430099028E00E98C068083009903B
:1009200023E00E98C0680C3009901EE00E98806895
:10093000002803D1FFE70420099011E00E98806899
:10094000012806D1FFE7082009900C980F9908614B
:1009500005E0082009900C980F994861FFE7FFE730
:1009600003E00020099000E0FFE70B98FF2803D880
:10097000FFE70F98049003E00F9804300490FFE71E
:10098000049808900B98FF2804D8FFE70D98800082
:10099000039006E00D986FF01F0101EB80000390BB
:1009A000FFE7039807900898006807990F228A408C
:1009B0009043099A02FA01F10843089908600E98D9
:1009C000C079C006002840F1CB80FFE7FFE741F285
:1009D0001800C4F20200016841F0010101600068E2
:1009E00000F0010006900698FFE70D9820F0030044
:1009F0000821C4F2010140580A900D9800F003004C
:100A000080000F2101FA00F00A9921EA00000A9003
:100A10000F9840F60001C4F20101884203D1FFE7BC
:100A20000020029026E00F9840F60041C4F2010138
:100A3000884203D1FFE70120019018E00F9841F2AE
:100A40000001C4F20101884203D1FFE702200090B7
:100A50000AE00F9841F20041C4F2010104228842E9
:100A600008BF03220092FFE700980190FFE701987A
:100A70000290FFE702980D9901F003018900884078
:100A80000A9908430A900A980D9921F00301082257
:100A9000C4F2010288500E988079C007002809D05E
:100AA000FFE70B9840F20041C4F201010A681043CD
:100AB000086009E00B9840F20041C4F201010A68A5
:100AC00022EA00000860FFE70E988079800700287E
:100AD00009D5FFE70B9840F20441C4F201010A680E
:100AE0001043086009E00B9840F20441C4F2010190
:100AF0000A6822EA00000860FFE70E988079C006C5
:100B0000002809D5FFE70B9840F20841C4F2010123
:100B10000A681043086009E00B9840F20841C4F2EB
:100B200001010A6822EA00000860FFE70E98807958
:100B30008006002809D5FFE70B9840F20C41C4F26B
:100B400001010A681043086009E00B9840F20C416B
:100B5000C4F201010A6822EA00000860FFE7FFE72B
:100B6000FFE70D9801300D9071E610B0704700005E
:100B700040F27000C2F200000068704780B58EB08D
:100B80000C900C98002804D1FFE701208DF8370065
:100B900041E10C9890F83D00002808D1FFE70C983F
:100BA000002180F83C100C9800F07CFCFFE70C98CA
:100BB000242180F83D100C980068016821F00101A3
:100BC000016000F09BFE0A900C98406848F2A0611A
:100BD000C0F2010188420BD8FFE70A9848F2804131
:100BE000C0F21E010022884238BF012209920AE0A9
:100BF0000A9840F60011C0F23D010022884238BF39
:100C000001220992FFE70998012804D1FFE701209A
:100C10008DF83700FFE00A984DF68361C4F21B316E
:100C2000A0FB0101890C0B910C990968496821F01E
:100C30003F010B9A11430C9A126851600C99096894
:100C4000096A21F03F010C9A526848F2A063C0F291
:100C500001039A42089104D8FFE70B9801300790EE
:100C60000EE00B984FF49671484344F6D351C1F20D
:100C70006201A0FB0101012202EB91110791FFE744
:100C80000798089908430C9A126810620C9800683B
:100C9000C0694CF6FF7290430C9A526848F2A06308
:100CA000C0F201039A4206901FD8FFE70A98013864
:100CB0000C9949684900B0FBF1F001306FF31F3027
:100CC000032803D8FFE7042005900BE00A980138B9
:100CD0000C9949684900B0FBF1F001306FF31F3007
:100CE0000590FFE7059804904FE00C988068002875
:100CF0000DD1FFE70A9801380C99496801EB4101D1
:100D0000B0FBF1F001306FF31F3003900DE00A9853
:100D100001380C99496819225143B0FBF1F00130B8
:100D2000042161F31F300390FFE7039800050028BA
:100D300003D1FFE70120029024E00C98806800288E
:100D40000DD1FFE70A9801380C99496801EB410180
:100D5000B0FBF1F001306FF31F3001900DE00A9805
:100D600001380C99496819225143B0FBF1F0013068
:100D7000042161F31F300190FFE7019840F4004027
:100D80000290FFE702980490FFE704980699084351
:100D90000C9A1268D0610C980068006820F0C000BE
:100DA0000C9A1368D2F81CC0126A42EA0C02104373
:100DB00018600C980068806848F2FF3290430C9AE3
:100DC0001368D2F80CC0126942EA0C021043986012
:100DD0000C980068C06820F0FF000C9A1368D2F8E5
:100DE00014C0926942EA0C021043D8600C98006863
:100DF000026842F0010202600C98002202640C9822
:100E0000202380F83D300C9802630C9880F83E2037
:100E10008DF83720FFE79DF837000EB080BD000049
:100E200010B592B0DDF850C09E460C460C90ADF85F
:100E30002E100A92ADF82630CDF80CC0CDF808E09F
:100E40000194FFF795FE08900C9890F83D0020283B
:100E500040F00D82FFE70C9808996A461160022164
:100E6000C0F210010122192301F0E4FA002804D095
:100E7000FFE702208DF83700FDE1FFE70C9890F8BE
:100E80003C00012804D1FFE702208DF83700F2E191
:100E90000C98012180F83C10FFE7FFE70C980068F0
:100EA0000068C007002807D1FFE70C9800680168B8
:100EB00041F001010160FFE70C980068016821F42E
:100EC000006101600C98222180F83D100C981021DF
:100ED00080F83E100C98002101640A980C99486231
:100EE000BDF826000C9948850C98408D0C99088512
:100EF0000C980021CFF6FF71C1620C98BDF82E103E
:100F0000149A089B01F002F9002804D0FFE70120A1
:100F10008DF83700AFE10C98008D002814D1FFE761
:100F2000FFE7002007900C980068406907900C9834
:100F30000068806907900798FFE70C9800680168CF
:100F400041F4007101605DE00C98008D01281FD113
:100F5000FFE70C980068016821F480610160EFF3FD
:100F6000108072B60E90FFE7002006900C98006883
:100F7000406906900C980068806906900698FFE723
:100F80000C980068016841F40071016062B638E0B5
:100F90000C98008D02281FD1FFE70C9800680168AB
:100FA00041F400610160EFF3108072B60F90FFE72B
:100FB000002005900C980068406905900C98006826
:100FC000806905900598FFE70C980068016821F496
:100FD0008061016062B613E00C980068016841F41A
:100FE00080610160FFE7002004900C980068406970
:100FF00004900C980068806904900498FFE7FFE76C
:10100000FFE7FFE7FFE70C98008D002800F01D8147
:10101000FFE70C98008D032800F2DA80FFE70C98B8
:10102000008D01281FD1FFE70C981499089A01F050
:10103000EDFA002804D0FFE701208DF837001AE10F
:101040000C98006800690C99496A08700C98416A0C
:10105000013141620C98018D013901850C98418D57
:1010600001394185B3E00C98008D022842D1FFE799
:101070000C98149B08996A4611600421C0F2010182
:10108000002201F0D7F9002804D0FFE701208DF8F5
:101090003700F0E0EFF3108072B610900C98006803
:1010A000016841F4007101600C98006800690C99B6
:1010B000496A08700C98416A013141620C98018DAF
:1010C000013901850C98418D0139418562B60C9832
:1010D000006800690C99496A08700C98416A0131EE
:1010E00041620C98018D013901850C98418D0139BF
:1010F00041856BE00C98149B08996A4611600421A5
:10110000C0F20101002201F095F9002804D0FFE7A8
:1011100001208DF83700AEE00C980068016821F4DA
:1011200080610160EFF3108072B611900C98006836
:1011300000690C99496A08700C98416A0131416252
:101140000C98018D013901850C98418D013941853B
:101150000C98149B08996A4611600421C0F20101A1
:10116000002201F067F9002804D0FFE701208DF884
:10117000370080E00C980068016841F4007101605C
:101180000C98006800690C99496A08700C98416ACB
:10119000013141620C98018D013901850C98418D16
:1011A0000139418562B60C98006800690C99496A5A
:1011B00008700C98416A013141620C98018D013927
:1011C00001850C98418D01394185FFE7FFE73BE040
:1011D0000C981499089A01F019FA002804D0FFE736
:1011E00001208DF8370046E00C98006800690C99E2
:1011F000496A08700C98416A013141620C98018D6E
:10120000013901850C98418D013941850C980068A0
:10121000406900F004000121B1EB900F13D1FFE70A
:101220000C98006800690C99496A08700C98416A2A
:10123000013141620C98018D013901850C98418D75
:1012400001394185FFE7FFE7DDE60C98202180F8B2
:101250003D100C98002180F83E10FFE70C9800210B
:1012600080F83C10FFE700208DF8370003E00220F3
:101270008DF83700FFE79DF8370012B010BD000071
:1012800010B58CB0DDF838C09E460C460A90ADF81B
:1012900026100892ADF81E30CDF810C0CDF80CE045
:1012A0000294FFF765FC06900A9890F83D0020280C
:1012B00040F0EF80FFE70A9806996A461160022124
:1012C000C0F210010122192301F0B4F8002804D063
:1012D000FFE702208DF82F00DFE0FFE70A9890F883
:1012E0003C00012804D1FFE702208DF82F00D4E054
:1012F0000A98012180F83C10FFE7FFE70A98006890
:101300000068C007002807D1FFE70A980068016855
:1013100041F001010160FFE70A980068016821F4CB
:10132000006101600A98212180F83D100A9810217F
:1013300080F83E100A980021016408980A994862D2
:10134000BDF81E000A9948850A98408D0A990885BB
:101350000A980021CFF6FF71C1620A98BDF82610E5
:101360000E9A069B00F096FF002804D0FFE70120AC
:101370008DF82F0091E0FFE7002005900A980068A3
:10138000406905900A980068806905900598FFE714
:10139000FFE70A98008D002863D0FFE70A980E99AE
:1013A000069A01F097F9002810D0FFE70A98006C20
:1013B000042807D1FFE70A980068016841F400712A
:1013C0000160FFE701208DF82F0066E00A980168B0
:1013D000406A007808610A98416A013141620A98BE
:1013E000418D013941850A98018D013901850A989D
:1013F0000068406900F004000121B1EB900F17D1A3
:10140000FFE70A98008D002812D0FFE70A980168CC
:10141000406A007808610A98416A013141620A987D
:10142000418D013941850A98018D01390185FFE718
:101430000A980E99069A00F0AFFF002810D0FFE737
:101440000A98006C042807D1FFE70A980068016831
:1014500041F400710160FFE701208DF82F001CE0CE
:1014600097E70A980068016841F4007101600A98E2
:10147000202180F83D100A98002180F83E10FFE7F7
:101480000A98002180F83C10FFE700208DF82F001B
:1014900003E002208DF82F00FFE79DF82F000CB02D
:1014A00010BD000080B588B0079000200690059020
:1014B000049003900798006845F60001C4F200010B
:1014C00088422DD1FFE7FFE741F21800C4F2020085
:1014D000016841F008010160006800F00800029016
:1014E0000298FFE74FF4406003901220049003201D
:1014F000069040F60040C4F2010003A9FFF7A0F9EE
:10150000FFE741F21C00C4F20200016841F48001CF
:101510000160006800F4800001900198FFE7FFE798
:1015200008B080BD40F20700C2F20000007840F22F
:101530007001C2F200010A681044086070470000A0
:1015400080B582B042F20000C4F20200016841F0AE
:1015500010010160032000F097F80020019000F0D6
:1015600007F8009000F03EF8019802B080BD00003E
:1015700080B582B0009040F20000C2F20000006826
:1015800040F20701C2F2000109784FF47A72B2FB0F
:10159000F1F1B0FBF1F000F07DFD002804D0FFE791
:1015A00001208DF8070018E000980F280DD8FFE7FC
:1015B00000994FF0FF30002200F046F8009840F20A
:1015C0000801C2F20001086003E001208DF8070065
:1015D00003E000208DF80700FFE79DF8070002B048
:1015E00080BD000083B0FFE741F21800C4F20200A2
:1015F000016841F001010160006800F00100029003
:101600000298FFE7FFE741F21C00C4F20200016804
:1016100041F080510160006800F080500190019815
:10162000FFE7FFE70420C4F2010001680091009980
:1016300021F0E0610091009941F000710091009962
:101640000160FFE703B0704780B588B003468DF8AE
:101650001F000691059200200490039301F0D4F935
:1016600004909DF91F000499069A059B0290084674
:1016700011461A4601F0D2F80299019008460199E4
:1016800001F0CAF908B080BD80B582B00190019820
:1016900001F0E4F902B080BD80B584B00290019100
:1016A0000298002804D1FFE701208DF80F001BE10C
:1016B000019842F20001C4F20201096801F0070139
:1016C000884216D9FFE742F20000C4F20200016826
:1016D00021F00701019A11430160006800F0070042
:1016E0000199884204D0FFE701208DF80F00FBE04C
:1016F000FFE702980078800700282AD5FFE70298C4
:1017000000784007002809D5FFE741F20400C4F241
:101710000200016841F4E0610160FFE7029800788F
:101720000007002809D5FFE741F20400C4F20200D7
:10173000016841F460510160FFE741F20400C4F226
:101740000200016821F0F001029A926811430160E1
:10175000FFE702980078C007002860D0FFE70298F2
:10176000406801280ED1FFE741F20000C4F20200F8
:1017700000688003002804D4FFE701208DF80F00E3
:10178000B2E021E00298406802280ED1FFE741F262
:101790000000C4F2020000688001002804D4FFE7C2
:1017A00001208DF80F009FE00DE041F20000C4F22F
:1017B000020000688007002804D4FFE701208DF8AC
:1017C0000F0091E0FFE7FFE741F20400C4F20200DE
:1017D000016821F00301029A526811430160FFF78A
:1017E000C7F90090FFE741F20400C4F2020000686C
:1017F00000F00C0002994968B0EB810F0ED0FFE7B2
:10180000FFF7B6F90099401A41F28931884204D3B2
:10181000FFE703208DF80F0066E0E4E7FFE701989B
:1018200042F20001C4F20201096801F00701884296
:1018300016D2FFE742F20000C4F20200016821F074
:101840000701019A11430160006800F00700019947
:10185000884204D0FFE701208DF80F0044E0FFE745
:1018600002980078400700280CD5FFE741F20400F9
:10187000C4F20200016821F4E061029AD2681143C7
:101880000160FFE702980078000700280DD5FFE708
:1018900041F20400C4F20200016821F46051029A8E
:1018A000126941EAC2010160FFE700F039F841F234
:1018B0000401C4F202010968C9B2090942F6CC5216
:1018C000C0F60002515CC84040F20001C2F20001C3
:1018D000086040F20800C2F200000068FFF748FE0E
:1018E00000218DF80F10FFE79DF80F0004B080BDB8
:1018F00040F20000C2F200000068704780B5FFF7B8
:10190000F7FF41F20401C4F202010968C1F30221A8
:1019100042F6DC52C0F60002515CC84080BD0000B7
:101920008BB040F60E70C1F210000A9040F60A30FB
:10193000C0F60C50099040F20670C0F608100890EE
:1019400040F20230C0F20450079040F20120ADF89E
:101950001A0000200590049003900290019041F23B
:101960000400C4F2020000680590059800F00C0025
:101970000146002800913DD0FFE70098042804D0DC
:10198000FFE70098082806D035E041F20020C0F2B9
:101990007A00019035E00598C0F3834007A9085C00
:1019A00002909DF81600C007002818D0FFE741F20A
:1019B0000400C4F20200006800F400300DF11A01C6
:1019C00041EA504000780490029841F20021C0F2B0
:1019D0007A0148430499B0FBF1F0039007E00298C4
:1019E00040F60011C0F23D0148430390FFE7039821
:1019F000019006E0FFE741F20020C0F27A0001907A
:101A0000FFE701980BB0704780B586B0049004984A
:101A1000002804D1FFE701208DF8170035E3049872
:101A20000078C007002800F0B180FFE741F2040011
:101A3000C4F20200006800F00C00042813D0FFE795
:101A400041F20400C4F20200006800F00C00082813
:101A50001CD1FFE741F20400C4F202000068C00399
:101A6000002813D5FFE741F20000C4F2020000682D
:101A70008003002809D5FFE704984068002804D1B6
:101A8000FFE701208DF81700FFE27EE0FFE70498F2
:101A90004068B0F5803F09D1FFE741F20000C4F291
:101AA0000200016841F48031016033E0049840682D
:101AB00000280DD1FFE741F20000C4F202000168E6
:101AC00021F480310160016821F48021016020E06F
:101AD00004984068B0F5A02F0DD1FFE741F2000057
:101AE000C4F20200016841F480210160016841F400
:101AF000803101600CE041F20000C4F20200016894
:101B000021F480310160016821F480210160FFE748
:101B1000FFE7FFE7FFE70498406800281AD0FFE7D7
:101B2000FFF726F80390FFE741F20000C4F202003D
:101B30000068800300280CD4FFE7FFF719F8039929
:101B4000401A652804D3FFE703208DF817009CE2B4
:101B5000EAE719E0FFF70CF80390FFE741F2000015
:101B6000C4F202000068800300280CD5FFE7FEF7EE
:101B7000FFFF0399401A652804D3FFE703208DF87F
:101B8000170082E2EAE7FFE7FFE7FFE70498007843
:101B90008007002840F18E80FFE741F20400C4F284
:101BA0000200006810F00C0F13D0FFE741F20400B0
:101BB000C4F20200006800F00C00082829D1FFE7F9
:101BC00041F20400C4F202000068C003002820D4DF
:101BD000FFE741F20000C4F202000068800700281D
:101BE00009D5FFE704980069012804D0FFE7012028
:101BF0008DF8170049E241F20000C4F202000168CA
:101C000021F0F801049A526941EAC2010160FFE73C
:101C10004FE00498006900282BD0FFE70020C4F2B1
:101C2000422001210160FEF7A3FF0390FFE741F28C
:101C30000000C4F202000068800700280CD4FFE70F
:101C4000FEF796FF0399401A032804D3FFE7032009
:101C50008DF8170019E2EAE741F20000C4F2020031
:101C6000016821F0F801049A526941EAC201016059
:101C70001EE00020C4F2422000210160FEF778FF40
:101C80000390FFE741F20000C4F202000068800701
:101C900000280CD5FFE7FEF76BFF0399401A0328D5
:101CA00004D3FFE703208DF81700EEE1EAE7FFE732
:101CB000FFE7FFE7049800780007002849D5FFE711
:101CC00004988069002823D0FFE740F28040C4F2E6
:101CD000422001210160FEF74BFF0390FFE741F234
:101CE0002400C4F202000068800700280CD4FFE73B
:101CF000FEF73EFF0399401A032804D3FFE70320B1
:101D00008DF81700C1E1EAE7012000F0C1FD1FE0F6
:101D100040F28040C4F2422000210160FEF728FF1B
:101D20000390FFE741F22400C4F20200006880073C
:101D300000280CD5FFE7FEF71BFF0399401A032884
:101D400004D3FFE703208DF817009EE1EAE7FFE7E1
:101D5000FFE7049800784007002840F1DA80FFE7A9
:101D600000208DF8070041F21C00C4F20200006858
:101D7000C000002813D4FFE7FFE741F21C00C4F2C3
:101D80000200016841F080510160006800F080505D
:101D900000900098FFE701208DF80700FFE747F269
:101DA0000000C4F200000068C005002822D4FFE74C
:101DB00047F20000C4F20000016841F48071016044
:101DC000FEF7D6FE0390FFE747F20000C4F20000E2
:101DD0000068C00500280CD4FFE7FEF7C9FE039990
:101DE000401A652804D3FFE703208DF817004CE163
:101DF000EAE7FFE7FFE70498C068012809D1FFE799
:101E000041F22000C4F20200016841F001010160CA
:101E100032E00498C06800280DD1FFE741F22000AD
:101E2000C4F20200016821F001010160016821F0A3
:101E3000040101601FE00498C06805280DD1FFE788
:101E400041F22000C4F20200016841F00401016087
:101E5000016841F0010101600CE041F22000C4F290
:101E60000200016821F001010160016821F0040114
:101E70000160FFE7FFE7FFE7FFE70498C06800287D
:101E80001CD0FFE7FEF774FE0390FFE741F220004D
:101E9000C4F202000068800700280ED4FFE7FEF7B6
:101EA00067FE0399401A41F28931884204D3FFE763
:101EB00003208DF81700E8E0E8E71BE0FEF758FE86
:101EC0000390FFE741F22000C4F20200006880079F
:101ED00000280ED5FFE7FEF74BFE0399401A41F2AA
:101EE0008931884204D3FFE703208DF81700CCE046
:101EF000E8E7FFE79DF80700012809D1FFE741F275
:101F00001C00C4F20200016821F080510160FFE76B
:101F1000FFE70498C069002800F0B380FFE741F2B2
:101F20000400C4F20200006800F00C00082800F071
:101F30008280FFE70498C06902285CD1FFE7602037
:101F4000C4F2422000210160FEF712FE0390FFE779
:101F500041F20000C4F202000068800100280CD5A4
:101F6000FFE7FEF705FE0399401A032804D3FFE7B5
:101F700003208DF8170088E0EAE70498006AB0F5BE
:101F8000803F0CD1FFE741F20400C4F20200016877
:101F900021F40031049A926811430160FFE741F295
:101FA0000400C4F20200016821F47411049A136A57
:101FB000526A1A43114301606020C4F24220012199
:101FC0000160FEF7D5FD0390FFE741F20000C4F287
:101FD00002000068800100280CD4FFE7FEF7C8FD6E
:101FE0000399401A032804D3FFE703208DF8170054
:101FF0004BE0EAE71EE06020C4F2422000210160CD
:10200000FEF7B6FD0390FFE741F20000C4F20200C4
:102010000068800100280CD5FFE7FEF7A9FD0399B1
:10202000401A032804D3FFE703208DF817002CE0A3
:10203000EAE7FFE724E00498C069012804D1FFE73C
:1020400001208DF8170020E041F20400C4F20200E4
:1020500000680290029800F480300499096A88426E
:1020600008D1FFE7029800F470100499496A884289
:1020700004D0FFE701208DF8170006E0FFE7FFE737
:10208000FFE700208DF81700FFE79DF8170006B066
:1020900080BD000080B582B00190019800F018FC6E
:1020A00002B080BDFFE7FEE782B0009000980068B4
:1020B000406900F480600121B1EB902F1ED1FFE751
:1020C000009800686FF4806141610098002101630D
:1020D0000098202280F83D20009880F83E1000985B
:1020E000016C41F004010164FFE70098002180F8D1
:1020F0003C10FFE701208DF8070003E000208DF879
:102100000700FFE79DF8070002B0704780B588B070
:102110008C460690ADF81610049203930698C06A98
:10212000029006980068016841F48061016002989D
:10213000082809D0FFE70298012805D0FFE7029898
:1021400010F5803F07D1FFE706980068016841F469
:10215000807101600DE00698006B112807D1FFE740
:1021600006980068016841F48071016000E0FFE7B3
:10217000FFE70698049B03996A4611604FF001112E
:10218000002200F057F9002804D0FFE701208DF865
:102190001F007AE006980069B0F5804F08D1FFE78C
:1021A0009DF8160040F0010006990968086159E0A1
:1021B000BDF8160000F44070C009F03006990968B7
:1021C00008610698049A039B0821C0F2010100F0FF
:1021D00093F9002804D0FFE701208DF81F0054E098
:1021E0009DF816000699096808610698049A039BF1
:1021F0000221C0F2010100F07FF9002804D0FFE7BE
:1022000001208DF81F0040E0FFE7002001900698B4
:102210000068406901900698006880690190019803
:10222000FFE706980068016841F480710160069834
:10223000049B03996A4611604FF00111002200F0DF
:10224000F9F8002804D0FFE701208DF81F001CE0FA
:10225000BDF8160000F44070C009F1300699096815
:102260000861FFE70698049A039B0221C0F201016E
:1022700000F042F9002804D0FFE701208DF81F008C
:1022800003E000208DF81F00FFE79DF81F0008B055
:1022900080BD000080B588B08C460690ADF8161061
:1022A000049203930698C06A02900298082809D005
:1022B000FFE70298012805D0FFE7029810F5803F5C
:1022C00007D1FFE706980068016841F4807101605A
:1022D0000DE00698006B122807D1FFE7069800680A
:1022E000016841F48071016000E0FFE7FFE70698B4
:1022F000049B03996A4611604FF00111002200F01F
:1023000099F8002804D0FFE701208DF81F003EE077
:1023100006980069B0F5804F08D1FFE7BDF81600B8
:1023200000F0FE000699096808611DE0BDF816007E
:1023300000F44070C009F0300699096808610698F9
:10234000049A039B0821C0F2010100F0D5F800288F
:1023500004D0FFE701208DF81F0018E09DF816005B
:10236000069909680861FFE70698049A039B022111
:10237000C0F2010100F0C0F8002804D0FFE70120FE
:102380008DF81F0003E000208DF81F00FFE79DF887
:102390001F0008B080BD000080B584B0029001919C
:1023A0000092FFE702980068406900F004000021F5
:1023B000B1EB900F36D1FFE70298FFF775FE0028CA
:1023C00004D0FFE701208DF80F002FE001980130C5
:1023D000002826D0FFE7FEF7CBFB0099401A0199B1
:1023E000884204D8FFE70198002819D1FFE7029836
:1023F000002101630298202280F83D20029880F895
:102400003E100298016C41F020010164FFE7029840
:10241000002180F83C10FFE701208DF80F0005E057
:10242000FFE7BFE700208DF80F00FFE79DF80F00E2
:1024300004B080BD80B586B0DDF820C0964604901B
:1024400003918DF80B200193FFE79DF80E00012802
:102450000CD1FFE7049800684069BDF80C100840F3
:10246000401AB0FA80F0400900900BE00498006830
:102470008069BDF80C100840401AB0FA80F040099D
:102480000090FFE700989DF80B1088422CD1FFE7E1
:1024900001980130002826D0FFE7FEF769FB089974
:1024A000401A0199884204D8FFE70198002819D101
:1024B000FFE70498002101630498202280F83D2062
:1024C000049880F83E100498016C41F020010164EA
:1024D000FFE70498002180F83C10FFE701208DF809
:1024E000170005E0FFE7B0E700208DF81700FFE7D1
:1024F0009DF8170006B080BD80B586B004900391AA
:1025000002920193FFE79DF80E0001280CD1FFE72E
:10251000049800684069BDF80C100840401AB0FAF1
:1025200080F0400900900BE0049800688069BDF8D5
:102530000C100840401AB0FA80F040090090FFE704
:10254000009800285AD1FFE704980068406900F419
:1025500080600121B1EB902F24D1FFE7049800683F
:10256000016841F400710160049800686FF48061B3
:1025700041610498002101630498202280F83D20E5
:10258000049880F83E100498016C41F00401016445
:10259000FFE70498002180F83C10FFE701208DF848
:1025A00017002FE002980130002826D0FFE7FEF741
:1025B000DFFA0199401A0299884204D8FFE702988D
:1025C000002819D1FFE70498002101630498202214
:1025D00080F83D20049880F83E100498016C41F08A
:1025E00020010164FFE70498002180F83C10FFE718
:1025F00001208DF8170005E0FFE784E700208DF843
:102600001700FFE79DF8170006B080BD80B584B0C5
:10261000029001910092FFE702980068406900F083
:1026200040000021B1EB901F4CD1FFE702980068F9
:10263000406900F010000121B1EB101F1CD1FFE731
:10264000029800686FF01001416102980021016357
:102650000298202280F83D20029880F83E100298CF
:10266000016C0164FFE70298002180F83C10FFE74D
:1026700001208DF80F0029E0FEF77AFA0099401A40
:102680000199884204D8FFE70198002819D1FFE793
:102690000298002101630298202280F83D200298D0
:1026A00080F83E100298016C41F020010164FFE7C0
:1026B0000298002180F83C10FFE701208DF80F0000
:1026C00004E0A9E700208DF80F00FFE79DF80F0058
:1026D00004B080BD80B584B0029001910092FFE704
:1026E000029800684069C0B20021B1EBD01F36D11A
:1026F000FFE70298FFF7D8FC002804D0FFE701208D
:102700008DF80F002FE001980130002826D0FFE758
:10271000FEF72EFA0099401A0199884204D8FFE783
:102720000198002819D1FFE702980021016302985F
:10273000202280F83D20029880F83E100298016C1B
:1027400041F020010164FFE70298002180F83C106D
:10275000FFE701208DF80F0005E0FFE7C0E700204C
:102760008DF80F00FFE79DF80F0004B080BD00005A
:1027700083B0FFE741F21800C4F20200016841F0A3
:1027800020010160006800F0200002900298FFE73D
:10279000FFE741F21800C4F20200016841F00801AD
:1027A0000160006800F0080001900198FFE7FFE772
:1027B00041F21800C4F20200016841F00401016016
:1027C000006800F0040000900098FFE703B0704735
:1027D00080B540F21400C2F2000045F60001C4F2D8
:1027E0000001016048F2A061C0F2010141600021D6
:1027F0008160C1604FF48042026141618161C161C9
:102800000162FEF7BBF9002803D0FFE7FDF7F4FFF4
:10281000FFE780BDFFE7FEE77047000088B0079044
:1028200006910592079800F0070004900498C0F103
:102830000700052803D3FFE70420019004E0049873
:10284000C0F107000190FFE701980390049804305D
:10285000062803D8FFE70020009003E0049803381F
:102860000090FFE70098029006980399012202FA6F
:1028700001F10139084002998840059B02FA01F1F3
:1028800001391940084308B0704700007047000044
:1028900082B00190019840F20001C2F20001096883
:1028A000C90844F6D352C1F26202A1FB0212920996
:1028B00050430090FFE700BFFFE70098411E0091E2
:1028C0000028F8D1FFE702B0704700007047000011
:1028D00080B582B0009000980138B0F1807F03D3BA
:1028E000FFE70120019019E0009801384EF2140131
:1028F000CEF2000108604FF0FF300F2100F08CF89D
:102900004EF21800CEF20000002101604EF21000DD
:10291000CEF20000072202600191FFE7019802B0A9
:1029200080BD000080B5FEF7FDFD80BD80B592B092
:1029300008A828210290FDF7FCFB002007900690D4
:10294000059004900390012108914FF48032099280
:102950000A900C9102200F9010924FF4C010119029
:102960000298FFF751F8002803D0FFE7FDF744FF76
:10297000FFE70F20039002200490002105914FF4FF
:1029800080620692079103A9019008460199FEF71B
:1029900083FE002803D0FFE7FDF72EFFFFE712B00C
:1029A00080BD000041F20000C4F20200016841F065
:1029B0000101016041F20401C4F202010A6800232E
:1029C000CFF6FF031A400A6002684FF6FF73CFF696
:1029D000F6631A400260026822F4802202600868EE
:1029E00020F4FE00086041F20800C4F202004FF437
:1029F0001F0101604EF60850CEF200004FF000615A
:102A000001607047FFE7FEE74EF60C50CEF2000083
:102A10000068C0F30220704782B002468DF80700BC
:102A200000919DF9070000280AD4FFE700980001F3
:102A30009DF907104EF20042CEF2000288540BE0DE
:102A4000009800019DF8071001F00F014EF6145296
:102A5000CEF200028854FFE702B0704783B00290C4
:102A6000029800F0070000904EF60C50CEF20000E5
:102A70000168019101994FF6FF02114001910199FE
:102A8000009A41EA02210022C0F2FA521143019158
:102A90000199016003B0704780B586B00A460346CD
:102AA0008DF817008DF816100020049003908DF813
:102AB0000700FFE79DF807009DF8171088420DDA20
:102AC000FFE704984FF07E51FDF73EFB0490FFE7CF
:102AD0009DF8070001308DF80700EBE700208DF826
:102AE0000600FFE79DF806009DF8161088420DDAF3
:102AF000FFE703984FF07E51FDF726FB0390FFE7B9
:102B00009DF8060001308DF80600EBE79DF81700F0
:102B10009DF8161041EA0020FDF766FD4AF2D73213
:102B2000C3F670524FF20A73C4F26503FDF77BFCE3
:102B300000220023C4F2F003FDF7E7FC4CF6CD427F
:102B4000CCF6CC4246F6CC43CCF24703FDF7C4FBAF
:102B5000FDF75BFD0290029806B080BD80B586B09F
:102B60000A4603468DF817008DF8161000200490D1
:102B700003908DF80700FFE79DF807009DF81710F8
:102B800088420DDAFFE704984FF07E51FDF7DCFA3A
:102B90000490FFE79DF8070001308DF80700EBE790
:102BA00000208DF80600FFE79DF806009DF816103E
:102BB00088420DDAFFE703984FF07E51FDF7C4FA23
:102BC0000390FFE79DF8060001308DF80600EBE763
:102BD00004984FF08741FDF70FFB0399FDF7B4FA16
:102BE0000021C4F2FA21FDF707FB4FF08F41FDF7FA
:102BF00035FB0021CCF2C001FDF7A6FA0290029845
:102C000006B080BD80B59AB000201990FEF798FC00
:102C10001690FFF78BFEFFF7ABFDFFF7D9FD40F2F3
:102C20000400C2F20000007840F21001C2F200017C
:102C3000087068464FF47A72026040F21400C2F2E3
:102C4000000080234FF0010C159014911946DDF817
:102C500050E01392724612936346CDF844C0FEF7DB
:102C60000FFB1A2110900846FDF7C8FD684613991E
:102C7000016040F26800C2F200000322159B0F9031
:102C800018461299DDF83CC00E9262460E9BFEF784
:102C9000C7F80F990A7849780D901046FFF75EFF44
:102CA00018901398FDF7AAFD40F20500C2F200004B
:102CB0000078149908706846139A02601598129962
:102CC000149A119BFEF7DCFA46210C900846FDF79A
:102CD00095FD68461399016040F26B00C2F2000056
:102CE000159A0B90104612990B9A0E9BFEF798F8C6
:102CF00013990A900846FDF781FD0B9800780B990F
:102D00004978FFF7C9FE179040F20600C2F20000B2
:102D10000078149908706846139A02601598129901
:102D2000149A119BFEF7ACFA119909900846FDF729
:102D300065FD68461399016040F26E02C2F200021E
:102D400015981299119BFEF76BF813990890084695
:102D5000FDF754FDFFE768464FF47A71016040F2D9
:102D60001400C2F2000040F21002C2F200028023FE
:102D70004FF0010C07900691194605936346CDF874
:102D800010C0FEF77DFA6946069A0A6040F26E02AC
:102D9000C2F200020799039008460599049BFEF7CA
:102DA0003FF8069902900846FDF728FDD3E702E0B8
:102DB00008C8121F08C1002AFAD1704770470020C6
:102DC00001E001C1121F002AFBD170470000000082
:102DD00000000000010203040607080900000000CB
:102DE00001020304082E000800000020100000006B
:102DF000AE2D0008182E00081000002068400000CA
:102E0000BE2D0008000000000024F400F5F3E701E7
:082E10001000000000000000AA
:04000005080000ED02
:00000001FF
