:020000040800F2
:100000006840002001010008490B0008450B00086A
:10001000470B00086D010008E10B0008000000001C
:100020000000000000000000000000004D0B000870
:100030006F010008000000004B0B00084F0B000888
:100040001B0100081B0100081B0100081B01000820
:100050001B0100081B0100081B0100081B01000810
:100060001B0100081B0100081B0100081B01000800
:100070001B0100081B0100081B0100081B010008F0
:100080001B0100081B0100081B0100081B010008E0
:100090001B0100081B0100081B0100081B010008D0
:1000A0001B0100081B0100081B0100081B010008C0
:1000B0001B0100081B0100081B0100081B010008B0
:1000C0001B0100081B0100081B0100081B010008A0
:1000D0001B0100081B0100081B0100081B01000890
:1000E0001B0100081B0100081B010008DFF80CD0F1
:1000F00000F02AF800480047210C00086840002062
:100100000648804706480047FEE7FEE7FEE7FEE7B1
:10011000FEE7FEE7FEE7FEE7FEE7FEE7990B0008D5
:10012000ED000008D2B201E000F8012B491EFBD21D
:1001300070470022F6E710B513460A4604461946F2
:10014000FFF7F0FF204610BD064C074D06E0E068C3
:1001500040F0010394E8070098471034AC42F6D30E
:10016000FFF7C8FFA80C0008C80C0008FEE770479E
:100170002DE9F84FDFF8B891002409F1040A0AF1DB
:10018000040B23460F270BF1040EC9E00125A540FF
:100190002A40AA427DD1674ED1F804C0ACEB0608D4
:1001A000B44532D014DCBCF1030F3AD009DCBCF109
:1001B000000F2AD0BCF1010F1CD0BCF1020F31D1CD
:1001C0001DE0BCF1110F17D0BCF1120F2AD119E0BC
:1001D000B8F5881F19D006DCB8F5803F15D0B8F502
:1001E000801F1FD111E0B8F5001F0ED0B8F5041F15
:1001F00018D10AE0CB6815E0CB681B1D12E0CB6874
:1002000008330FE0CB680C330CE08B682BB1012B6B
:100210004FF0080303D0456104E0042302E00561C8
:1002200000E00023FF2A01D8064601E000F10406A1
:100230004FEA840501D9A5F12005D6F8008007FA18
:1002400005FC28EA0C0803FA05F548EA0508C6F893
:1002500000804D68ED0062D5374DAE6946F001066D
:10026000AE61AD6924F0030605F001050095334D3C
:1002700006EB050CDCF80850A607360F07FA06F85F
:1002800025EA0805DFF8B880404503D14FF00008A3
:1002900017E044E0DFF8AC80404502D14FF00108A0
:1002A0000FE0DFF8A480404502D14FF0020808E0DB
:1002B000DFF89880404502D14FF0030801E04FF08D
:1002C000040808FA06F848EA0508CCF808804D68E2
:1002D000D9F80060ED034D4601D5164300E0964382
:1002E0002E604D68DAF80060AD03554601D516431F
:1002F00000E096432E604D68DBF80060ED025D463D
:1003000001D5164300E096432E604D68DEF800608C
:10031000AD02754601D5164300E096432E60641C7D
:100320000D682A46E5407FF431AFBDE8F88F000044
:1003300000040140000011100010024000000140C4
:1003400000080140000C0140001001400014014071
:1003500001488068704700000000002070B504006C
:100360001BD094F83D00002520B984F83C5020466D
:1003700000F0AEF8242084F83D002068016821F0E8
:100380000101016000F0F4F94D4A6168914201D821
:100390004C4900E04C49884201D2012070BD4B49D4
:1003A0002368B0FBF1F15E6826F03F060E435E6005
:1003B0006368934206D94FF4967359434FF47A73A6
:1003C000B1FBF3F12368491C1E6A26F03F06314356
:1003D00019626168914210D84900401EB0FBF1F2E9
:1003E000521CC2F30B02042A01D2042022E0B0FB0B
:1003F000F1F0401CC0F30B001CE0A368F3B301EB69
:10040000C10202EB0116421EB2FBF6F2521C42F48C
:100410008042120549D093B301EBC10202EB0111F6
:10042000401EB0FBF1F0401CC0F30B0040F48040D4
:1004300040F400402168CA694CF6FF739A431043A8
:10044000C861D4E90701084321680A6822F0C002A4
:1004500010430860D4E9030101432068826848F230
:10046000FF339A4311438160D4E9050108432168B1
:10047000CA6822F0FF021043C86001E00EE016E0F7
:100480002068016841F0010101602564202084F8A2
:100490003D00256384F83E50002070BD01EB41060D
:1004A000421EB2FBF6F2521CB3E70120C2E701EB99
:1004B0004101401EB0FBF1F0401CC0F30B00B7E758
:1004C000A086010080841E0000093D0040420F000C
:1004D00010B586B00021009101910291039100684E
:1004E000104988421BD1104CA06940F00800A0615F
:1004F000A069694600F0080004904FF44060009045
:1005000012200190032003900848FFF731FEE069B4
:1005100040F48000E061E06900F48000049006B0DF
:1005200010BD00000058004000100240000C0140C7
:100530000248816802781144816070470000002001
:10054000074810B5016841F010010160032000F078
:1005500067F8002000F006F800F024F8002010BD35
:100560000020024070B50D4D04464FF47A71287892
:10057000B1FBF0F00A490968B1FBF0F000F0CEFAE7
:1005800048B9102C07D200222146501E00F028F84E
:1005900000206C6070BD012070BD000000000020D4
:1005A0000C0000200C4808B5816941F0010181610F
:1005B000816901F001010091C16941F08051C1617F
:1005C000C06900F0805000900448416821F0E0616B
:1005D00041F00071416008BD001002400000014080
:1005E000F0B40E4B1B680C46C3F30223C3F107059E
:1005F000042D00D90425191D072901D2002300E08C
:10060000DB1E012606FA05F1491E214099409E4055
:10061000761E16403143F0BC00F0E3BA0CED00E06A
:10062000064900F0070208684FF6FF03184040EA49
:100630000220034A10430860704700000CED00E000
:100640000000FA052DE9F0470F46050061D0434E42
:10065000306800F00700B84209D2306820F0070087
:1006600038433060306800F00700B84251D1286844
:100670003B4C810712D5400703D5606840F4E06029
:1006800060602878000703D5606840F460506060BF
:100690006068A96820F0F000084360602878C0070F
:1006A00028D06868012810D02168022810D0890756
:1006B00000292EDA616821F0030101436160FFF730
:1006C00047FE804641F288390DE021688903EFE753
:1006D0008901EDE7FFF73CFEA0EB0801494502D98F
:1006E0000320BDE8F0876068696800F00C00B0EB9B
:1006F000810FEFD1306800F00700B8420BD93068A5
:1007000020F0070038433060306800F00700B8423E
:1007100001D00120E5E72878400705D56068E96841
:1007200020F4E060084360602878000706D5606820
:10073000296920F4605040EAC100606000F028F8A8
:100740006168084AC1F30311515CC840064908605A
:1007500006480068FFF706FF0020C2E700200240BD
:1007600000100240900C00080C0000200400002043
:100770000448054900684968044AC1F30221515CF4
:10078000C84070470C00002000100240A00C000878
:1007900012A185B00FC98DE80F0014A0144A00689B
:1007A00004905168134801F00C03042B10D0082B5F
:1007B0000ED1C1F38343C9031DF803000AD5516864
:1007C00004AAC1F34041515C0A4A5043B0FBF1F026
:1007D00005B0704708494843FAE7000002030405E2
:1007E000060708090A0B0C0D0E0F1010010200007D
:1007F0000010024000127A0000093D002DE9F84F78
:10080000040070D02078C04DC00749D06868C0F39C
:100810008100012807D06868C0F38100022809D14F
:100820006868C00306D52868800339D56068002849
:10083000E7D035E06068B0F5803F0BD010B1B0F57F
:10084000A02F11D0286820F480302860286820F478
:10085000802002E0286840F480302860606890B111
:10086000FFF776FD06460AE0286840F480202860FD
:10087000F0E700BFFFF76CFD801B642873D8286881
:100880008003F7D50CE0FFF763FD064605E000BFE7
:10089000FFF75EFD801B6428F0D828688003F7D43A
:1008A00020789A4E80074FF001094FF0000839D5A3
:1008B000686810F00C0F07D06868C0F38100022848
:1008C00009D16868C00306D42868800714D5206958
:1008D000012808D110E02069B0B1C6F80090FFF7F8
:1008E00037FD074605E00AE1FFF732FDC01B02288D
:1008F000C4D828688007F7D52868616920F0F80017
:1009000040EAC10028600DE0C6F80080FFF720FD36
:10091000074604E0FFF71CFDC01B022823D8286807
:100920008007F7D4207800072CD57948A169D9B180
:10093000C0F80090FFF70CFD074604E0FFF708FD44
:10094000C01B02280FD8686A8007F7D571484FF49A
:10095000FA510068B0FBF1F0009000BF0098411E12
:100960000091FAD20EE080E0C0F80080FFF7F0FCC2
:10097000074604E0FFF7ECFCC01B022875D8686A44
:100980008007F7D42078400760D5E8690027C000C9
:1009900008D4E86940F08050E861E869012700F078
:1009A000805000905C480168C90513D401688346F3
:1009B00041F480710160FFF7CBFC824606E000BF86
:1009C000FFF7C6FCA0EB0A0064284ED8DBF8000055
:1009D000C005F5D5E06801280AD008B1052813D074
:1009E000286A20F001002862286A20F0040002E052
:1009F000286A40F001002862E06841F2883B98B123
:100A0000FFF7A6FC82460BE0286A40F0040028624B
:100A1000EEE700BFFFF79CFCA0EB0A0159455AD84E
:100A2000286A8007F6D50CE0FFF792FC824605E0C5
:100A3000FFF78EFCA0EB0A0159454CD8286A8007C5
:100A4000F6D41FB1E86920F08050E861E06988B30E
:100A50006968C1F38101022944D00228C6F8608088
:100A600004D0FFF775FC044638E034E0FFF770FC73
:100A7000074604E0FFF76CFCC01B02282BD828684F
:100A80008001F7D4206AB0F5803F05D16868A1687D
:100A900020F4003008436860D4E90801084369681D
:100AA00021F4741108436860C6F86090FFF750FCA9
:100AB000044606E025E000BFFFF74AFC001B0228C1
:100AC00009D828688001F7D51BE000BFFFF740FC7C
:100AD000001B022802D90320BDE8F88F2868800196
:100AE000F4D40EE00128F7D06868226A00F480315F
:100AF000914204D1616A00F47010884201D0012053
:100B0000EAE70020E8E7000000100240000042424F
:100B1000800442420C0000200070004010B5401ECE
:100B2000B0F1807F01D3012010BD4FF0E02460615F
:100B30000F21601700F055F80020A0610720206108
:100B4000002010BDFEE7FEE7704770477047FFF7D3
:100B5000EFBC10B590B028216846FFF7EAFA1421DF
:100B60000AA8FFF7E6FA0220009001200490102066
:100B70000024059007946846FFF740FE0F20CDE95A
:100B80000A044FF48060CDE90C4000210AA80E94BD
:100B9000FFF758FD10B010BD0D48016841F001018C
:100BA000016041680B4A1140416001680A4A1140E6
:100BB0000160016821F480210160416821F4FE0197
:100BC00041604FF41F0181600449C0030860704711
:100BD000001002400000FFF8FFFFF6FE08ED00E005
:100BE000FEE70907090E002804DB00F1E02080F889
:100BF0000014704700F00F0000F1E02080F8141D91
:100C0000704702E008C8121F08C1002AFAD17047D5
:100C10007047002001E001C1121F002AFBD170477C
:100C200008B5FFF78DFCFFF794FF1548816941F087
:100C300020018161816901F020010091816941F009
:100C400008018161816901F008010091816941F029
:100C50000401816180690B4900F0040000900A489A
:100C60004FF4804201600949416000218160C0E980
:100C7000031241618161C1610162FFF76FFBFEE711
:100C8000001002400058004010000020A086010023
:100C9000000000000000000001020304060708092C
:100CA0000000000001020304C80C0008000000203E
:100CB00010000000020C0008D80C000810000020F2
:100CC00058400000120C0008010000001000000055
:080CD000000000000024F40004
:04000005080000ED02
:00000001FF
