:020000040800F2
:100000008804002001010008F11B0008D516000833
:10001000ED1B000869040008D11C00080000000066
:100020000000000000000000000000001D1C00088F
:100030006D04000800000000F31B00081F1C0008EE
:100040001B0100081B0100081B0100081B01000820
:100050001B0100081B0100081B0100081B01000810
:100060001B0100081B0100081B0100081B01000800
:100070001B0100081B0100081B0100081B010008F0
:100080001B0100081B0100081B0100081B010008E0
:100090001B0100081B0100081B0100081B010008D0
:1000A0001B0100081B0100081B0100081B010008C0
:1000B0001B0100081B0100081B0100081B010008B0
:1000C0001B0100081B0100081B0100081B010008A0
:1000D0001B0100081B0100081B0100081B01000890
:1000E0001B0100081B0100081B010008DFF80CD0F1
:1000F00000F02AF8004800472D1D00088804002061
:100100000648804706480047FEE7FEE7FEE7FEE7B1
:10011000FEE7FEE7FEE7FEE7FEE7FEE7791C0008E4
:10012000ED000008D2B201E000F8012B491EFBD21D
:1001300070470022F6E710B513460A4604461946F2
:10014000FFF7F0FF204610BD064C074D06E0E068C3
:1001500040F0010394E8070098471034AC42F6D30E
:10016000FFF7C8FF681D0008881D00082DE9FF5F24
:1001700000BFF420644908702E2048704FF47A7054
:1001800002230A46EE210090604800F07BFDF62035
:100190005D490870052000F06BF94FF47A70012377
:1001A000594AEE210090594800F06CFD4FF47A70E6
:1001B0000323574AEE210090544800F0DFFB5448D7
:1001C00040785349097800EB012B52480088ABEB8B
:1001D0000000514909884843C4135048B0F9000051
:1001E000C0024F49B1F90010214490FBF1F6A0196B
:1001F0000190F4204449087048704FF47A7002234B
:100200000A46EE210090414800F03CFDF6203E49B0
:1002100008701A2000F02CF94FF47A7001233A4A42
:10022000EE210090394800F02DFD4FF47A70032341
:10023000374AEE210090354800F0A0FB34480078A2
:1002400000043349497840EA01203149897808435C
:10025000401103900198A0F57A6707FB07F000139F
:100260003049B1F900104843C4122F48B0F90000DA
:100270007843C61204EB06092C48B0F9000009EBDC
:100280008000022101EBC000801002902848B0F9E4
:1002900000007843441307FB07F000132549B1F928
:1002A000001048430614A019801C4FEAA0092248F8
:1002B000008809F5004148434FEAD03ADDE90210D1
:1002C000401A41F66A0100FB01F8B8F1004F04D270
:1002D0004FEA4800B0FBFAF502E0B8FBFAF045003F
:1002E000280A00FB00F440F6DE3060430414134893
:1002F0006843060CA01900F6CF6005EB20152846D0
:1003000004B0BDE8F09F000007000020300000208E
:10031000040000200E0000200C000020100000202F
:10032000120000201C0000201600002014000020F5
:10033000180000201A0000200A00002043E3FFFFFD
:1003400000B587B0AA203B4908704FF47A700123AA
:100350000A46EE210090384800F094FC4FF47A7081
:10036000162301AAEE210090334800F007FB9DF808
:1003700005009DF8041040EA012000B22F490880D2
:100380009DF807009DF8061040EA012000B22C49B4
:1003900008809DF809009DF8081040EA012000B28D
:1003A000284908809DF80B009DF80A1040EA0120BA
:1003B000254908809DF80D009DF80C1040EA0120A9
:1003C000224908809DF80F009DF80E1040EA012098
:1003D0001F4908809DF811009DF8101040EA012087
:1003E00000B21C4908809DF813009DF8121040EAE5
:1003F000012000B2184908809DF815009DF81410DE
:1004000040EA012000B2154908809DF817009DF8C8
:10041000161040EA012000B2114908809DF8190029
:100420009DF8181040EA012000B20E49088007B07C
:1004300000BD000007000020300000201400002054
:1004400016000020180000200A0000200C000020E8
:100450000E0000201A0000201C0000201E000020BA
:10046000100000201200002000BFFEE77047704718
:1004700070B5044600F0A0F906462546681C10B188
:1004800004480078054400BF00F096F9801BA8429C
:10049000FAD370BD280000202DE9F847034600225A
:1004A00094466EE14FF0010808FA02F4D1F800809A
:1004B00008EA0400A0427DD1DFF8DCA2D1F8048074
:1004C000A8EB0A09D0453AD014DCB8F1030F50D09C
:1004D00009DCB8F1000F31D0B8F1010F1CD0B8F130
:1004E000020F49D120E0B8F1110F18D0B8F1120F66
:1004F00042D11EE0B9F5881F25D006DCB9F5803F52
:1005000020D0B9F5801F37D11AE0B9F5001F18D0F7
:10051000B9F5041F30D117E0D1F80CC02DE0D1F8A7
:100520000C8008F1040C28E0D1F80C8008F1080CCC
:1005300023E0D1F80C8008F10C0C1EE000BF00BFD6
:1005400000BF00BF00BF00BFD1F80880B8F1000FA6
:1005500002D14FF0040C0BE0D1F80880B8F1010F84
:1005600003D14FF0080C1C6102E04FF0080C5C61F5
:1005700003E04FF0000C00E000BF00BFFF2801D8EF
:10058000984601E003F104084646FF2802D84FEAE6
:10059000820803E0A2F108084FEA88084746D6F827
:1005A00000804FF00F0909FA07F928EA09080CFA48
:1005B00007F900E088E048EA0908C6F80080D1F8A9
:1005C000048008F08058B8F1805F7DD100BFDFF86B
:1005D000CC81D8F8188048F00108DFF8C091C9F83C
:1005E0001880C846D8F8188008F00108CDF80080B7
:1005F00000BF00BF4FEAB9384FEA920958F82950B6
:100600004FEA82784FEA18794FF00F0808FA09F894
:1006100025EA0805DFF88881434502D14FF000083C
:1006200016E0DFF88081434502D14FF001080FE06A
:10063000DFF87481434502D14FF0020808E0DFF88B
:100640006C81434502D14FF0030801E04FF00408EC
:100650004FEA82794FEA197908FA09F848EA05055C
:10066000DFF84C814FEA920948F82950D1F804800C
:1006700008F48038B8F5803F0AD1DFF83881D8F81F
:10068000008048EA0008DFF82C91C9F8008009E0F2
:10069000DFF82081D8F8008028EA0008DFF81491FC
:1006A000C9F80080D1F8048008F40038B8F5003F9C
:1006B00010D1DFF8008108F10408D8F8008048EA7A
:1006C0000008DFF8F09000E05AE009F10409C9F8E9
:1006D00000800DE0DFF8DC8008F10408D8F8008025
:1006E00028EA0008DFF8CC9009F10409C9F8008075
:1006F000D1F8048008F48018B8F5801F0ED1DFF817
:10070000B48008F10808D8F8008048EA0008DFF84B
:10071000A49009F10809C9F800800DE0DFF8948081
:1007200008F10808D8F8008028EA0008DFF884906B
:1007300009F10809C9F80080D1F8048008F400180C
:10074000B8F5001F0ED1DFF86C8008F10C08D8F85E
:10075000008048EA0008DFF85C9009F10C09C9F84C
:1007600000800DE0DFF84C8008F10C08D8F800801C
:1007700028EA0008DFF83C9009F10C09C9F800806C
:10078000521CD1F8008028FA02F8B8F1000F7FF46B
:1007900089AEBDE8F887000000001110001002408B
:1007A00000080140000C014000100140001401400D
:1007B0000800014000040140014800687047000043
:1007C0002000002070B504460CB9012070BD94F8DB
:1007D0003D0028B9002084F83C00204600F00AFBC8
:1007E000242084F83D002068006820F00100216882
:1007F000086000F0C9FC05465C496068884206D87C
:100800005B48854201D2012007E0002005E05948FD
:10081000854201D2012000E00020012800D1D5E767
:100820005548B5FBF0F62068406820F03F003043A3
:10083000216848604D496068884201D8701C07E013
:100840004FF4967070434FF47A71B0FBF1F0401C96
:100850002168096A21F03F01084321680862434981
:100860006068884214D8681E61684900B0FBF1F0E6
:10087000401CC0F30B00042801D204203DE0681E98
:1008800061684900B0FBF1F0401CC0F30B0034E09C
:10089000A06838B9681E616801EB4101B0FBF1F056
:1008A000401C0AE0681E616801EBC10202EB011105
:1008B000B0FBF1F0401C40F48040C0F30B0008B9DD
:1008C00001201AE0A06848B9681E616801EB410187
:1008D000B0FBF1F0401CC0F30B000CE0681E616837
:1008E00001EBC10202EB0111B0FBF1F0401CC0F3BF
:1008F0000B0040F4804040F400402168C9694CF688
:10090000FF72914308432168C861D4E90701084395
:100910002168096821F0C001084321680860D4E912
:10092000031008432168896848F2FF329143084365
:1009300021688860D4E9050108432168C96821F06D
:10094000FF0108432168C8602068006840F001008A
:100950002168086000202064202084F83D000020E9
:10096000206384F83E0000BF30E70000A08601004D
:1009700080841E0000093D0040420F002DE9F8432D
:100980000446894617469846089EFFF715FF054618
:1009900094F83D0020286FD119230122B649204642
:1009A000009500F0C5FF10B10220BDE8F88300BF3C
:1009B00094F83C00012801D10220F6E7012084F8D8
:1009C0003C0000BF2068006800F0010028B92068E2
:1009D000006840F00100216808602068006820F489
:1009E000006021680860222084F83D00102084F80F
:1009F0003E00002020646762A4F82A80608D208574
:100A00009E48E0622B4632464946204600F084FE6E
:100A100008B10120C9E7208D88B900BF00200090EF
:100A200020684069009020688069009000BF00BF86
:100A30002068006840F40070216808604BE0208D59
:100A400001281AD12068006820F4806021680860BD
:100A500072B600BF002000902068406900902068B6
:100A60008069009000BF00BF2068006840F40070FB
:100A70002168086062B62EE0FBE0208D022819D1C3
:100A80002068006840F400602168086072B600BF0A
:100A900000200090206840690090206880690090E4
:100AA00000BF00BF2068006820F4806021680860F3
:100AB00062B610E02068006840F480602168086039
:100AC00000BF002000902068406900902068806985
:100AD000009000BF00BFBDE0208D032870D8208D9E
:100AE000012815D12A463146204600F0C6FF08B13C
:100AF00001205AE720680069616A0870606A401C3A
:100B00006062208D401E2085608D401E6085A1E0C2
:100B1000208D02282CD133460022594920460095C9
:100B200000F006FF08B101203FE772B620680068B8
:100B300040F400702168086020680069616A0870EC
:100B4000606A401C6062208D401E2085608D401EC2
:100B5000608562B620680069616A0870606A401C3E
:100B60006062208D401E2085608D401E608571E092
:100B70003346002242492046009500F0D9FE08B1D4
:100B8000012012E72068006820F480602168086076
:100B900072B620680069616A0870606A401C606211
:100BA000208D401E2085608D401E608533460022CA
:100BB00033492046009500F0BBFE10B10120F4E659
:100BC00021E02068006840F4007021680860206817
:100BD0000069616A0870606A401C6062208D401E76
:100BE0002085608D401E608562B620680069616A5C
:100BF0000870606A401C6062208D401E2085608DF8
:100C0000401E608526E02A463146204600F035FF2A
:100C100008B10120C9E620680069616A0870606A4D
:100C2000401C6062208D401E2085608D401E6085C6
:100C300020684069C0F3800060B120680069616A83
:100C40000870606A401C6062208D401E2085608DA7
:100C5000401E6085208D00287FF43EAF202084F860
:100C60003D00002084F83E0000BF84F83C0000BF37
:100C70009BE6022099E60000020010000000FFFF42
:100C8000040001002DE9F8430446894616461F4634
:100C9000DDF82080FFF790FD054694F83D00202800
:100CA0007ED11923012251492046009500F040FED3
:100CB00010B10220BDE8F88300BF94F83C00012881
:100CC00001D10220F6E7012084F83C0000BF206833
:100CD000006800F0010028B92068006840F00100B9
:100CE000216808602068006820F4006021680860BE
:100CF000212084F83D00102084F83E00002020646C
:100D000066626785608D20853948E0622B464246E1
:100D10004946204600F088FD08B10120CAE700BF1F
:100D20000020009020684069009020688069009051
:100D300000BF00BF44E02A464146204600F0DDFEE9
:100D400050B1206C042805D12068006840F4007080
:100D5000216808600120ADE7606A007821680861B9
:100D6000606A401C6062608D401E6085208D401E60
:100D7000208520684069C0F3800070B1208D60B18B
:100D8000606A007821680861606A401C6062608D5A
:100D9000401E6085208D401E20852A46414600E089
:100DA00022E0204600F096FD50B1206C042805D1C9
:100DB0002068006840F4007021680860012079E72D
:100DC000208D0028B7D12068006840F400702168A9
:100DD0000860202084F83D00002084F83E0000BF19
:100DE00084F83C0000BF65E7022063E702001000C2
:100DF0000000FFFF10B586B004460020029003906B
:100E00000490059016492068884226D100BF1548F5
:100E1000806940F00800134988610846806900F045
:100E20000800019000BF00BF4FF440600290122004
:100E300003900320059002A90B48FFF72DFB00BF8C
:100E40000848C06940F480000649C8610846C06986
:100E500000F48000019000BF00BF06B010BD00008C
:100E60000058004000100240000C01400348006898
:100E700003490978084401490860704720000020B0
:100E80002800002010B50848006840F0100006490E
:100E90000860032000F098F8002000F007F800F048
:100EA0002BF8002010BD00000020024070B5044661
:100EB0000E4800784FF47A71B1FBF0F00C490968E4
:100EC000B1FBF0F5284600F0EBFB08B1012070BD46
:100ED000102C07D200222146501E00F037F805489A
:100EE000046001E00120F2E70020F0E72800002084
:100EF0002C0000202400002008B500BF11488069A4
:100F000040F001000F4988610846806900F0010047
:100F1000009000BF00BF00BF0846C06940F080508D
:100F2000C8610846C06900F08050009000BF00BF53
:100F300000BF0549486820F0E06040F0007048605C
:100F400000BF08BD00100240000001402DE9F05F25
:100F500080460D461646002700F0BCFE074639467F
:100F60002A46334601F00700C0F1070ABAF1040F20
:100F700002D94FF0040A01E0C0F1070AD14600F19E
:100F8000040ABAF1070F02D24FF0000A01E0A0F103
:100F9000030AD4464FF0010A0AFA09FAAAF1010A33
:100FA0000AEA020A0AFA0CFA4FF0010B0BFA0CFBE0
:100FB000ABF1010B0BEA030B4AEA0B042146404656
:100FC00000F090FEBDE8F09F00BF00F00702064B66
:100FD00019684FF6FF031940044B0B4343EA022103
:100FE000014B196000BF70470CED00E00000FA05EE
:100FF00070B504460D460CB9012070BD5A48006812
:1010000000F00700A8420ED25748006820F0070001
:101010002843554908600846006800F00700A842C8
:1010200001D00120E9E7207800F0020002281DD15C
:10103000207800F00400042805D14C48406840F4B2
:10104000E0604A494860207800F00800082805D18F
:101050004648406840F4605044494860434840680E
:1010600020F0F000A168084340494860207800F073
:10107000010078B36068012806D13C48006800F49C
:10108000003090B90120B8E76068022806D13748DF
:10109000006800F0007040B90120AEE733480068F6
:1010A00000F0020008B90120A7E73048406820F0AE
:1010B0000300616808432D494860FFF77DFB064641
:1010C00009E0FFF779FB801B41F28831884202D9A1
:1010D000032092E707E02548406800F00C006168B3
:1010E000B0EB810FEDD12048006800F00700A84266
:1010F0000ED91D48006820F0070028431A490860EF
:101100000846006800F00700A84201D0012074E7FB
:10111000207800F00400042807D11448406820F427
:10112000E060E168084311494860207800F0080059
:10113000082808D10D48406820F46050216940EA31
:10114000C1000A49486000F02FF808494968C1F316
:101150000311074A515CC840064908600648006808
:10116000FFF7A4FE002048E70020024000100240E4
:10117000501D00082C0000202400002001480068B9
:10118000704700002C00002000B5FFF7F7FF04496E
:101190004968C1F30221034A515CC84000BD000008
:1011A00000100240601D0008F0B585B00FF26C0C15
:1011B0009CE8E01001A8A0E8E0101CA52D680095AF
:1011C00000210022002300240020194D696801F04D
:1011D0000C05F5B1042D02D0082D19D101E01548F8
:1011E00019E001ADC1F38346AC5D01F4803555B122
:1011F0000F4D6D68C5F340451DF805200D4D654345
:10120000B5FBF2F302E00C4D04FB05F3184602E0D7
:1012100000BF084800BF00BF05B0F0BD02030405D1
:10122000060708090A0B0C0D0E0F10100102000032
:101230000010024000127A0000093D00F8B5044693
:101240000CB90120F8BD207800F00100002878D00A
:10125000F848406800F00C0004280CD0F5484068BD
:1012600000F00C00082811D1F248406800F48030EA
:10127000B0F5803F0AD1EF48006800F40030002844
:101280005FD0606800285CD10120DBE700BF6068A8
:10129000B0F5803F06D1E748006840F48030E5496A
:1012A000086028E0606858B9E248006820F480309F
:1012B000E04908600846006820F4802008601AE0D1
:1012C0006068B0F5A02F0BD1DA48006840F48020A8
:1012D000D84908600846006840F4803008600AE099
:1012E000D448006820F48030D2490860084600687D
:1012F00020F48020086000BF606888B1FFF75CFAC6
:10130000054606E0FFF758FA401B642801D9032080
:1013100098E7C848006800F400300028F2D010E0D8
:10132000FFF74AFA054606E0FFF746FA401B642835
:1013300001D9032086E7BF48006800F40030002888
:10134000F2D1207800F00200022857D1B948406855
:1013500000F00C0050B1B748406800F00C000828BD
:1013600018D1B448406800F4803098B9B14800689A
:1013700000F0020020B12069012801D0012061E7BE
:10138000AC48006820F0F800616940EAC100A94952
:10139000086033E02069E8B10120A7490860FFF741
:1013A0000BFA054606E0FFF707FA401B022801D9B1
:1013B000032047E79F48006800F002000028F2D0B1
:1013C0009C48006820F0F800616940EAC100994932
:1013D000086013E0002098490860FFF7EDF9054622
:1013E00006E0FFF7E9F9401B022801D9032029E7AD
:1013F0009048006800F002000028F2D1207800F048
:10140000080008282DD1A069B8B101208B490860D7
:10141000FFF7D2F9054606E0FFF7CEF9401B022898
:1014200001D903200EE78348406A00F0020000283B
:10143000F2D0012000F0DEFB13E000207F490860BD
:10144000FFF7BAF9054606E0FFF7B6F9401B022898
:1014500001D90320F6E67748406A00F00200002830
:10146000F2D1207800F00400042873D100277148DD
:10147000C06900F0805070B900BF6E48C06940F08C
:1014800080506C49C8610846C06900F080500090E7
:1014900000BF00BF01276A48006800F48070B0B93F
:1014A0006748006840F4807065490860FFF784F978
:1014B000054606E0FFF780F9401B642801D90320A8
:1014C000C0E65F48006800F480700028F2D000BFDA
:1014D000E068012806D15748006A40F001005549EC
:1014E000086227E0E06858B95248006A20F001001D
:1014F000504908620846006A20F00400086219E0BA
:10150000E06805280BD14B48006A40F004004949C7
:1015100008620846006A40F0010008620AE0454897
:10152000006A20F00100434908620846006A20F082
:101530000400086200BFE068A0B1FFF73DF905466E
:1015400009E0FFF739F9401B41F28831884202D99E
:10155000032077E622E03748006A00F00200002806
:10156000EFD012E0FFF728F9054608E0FFF724F96D
:10157000401B41F28831884201D9032062E62D48A0
:10158000006A00F002000028F0D1012F05D129489F
:10159000C06920F080502749C86100BFE069C8B326
:1015A0002448406800F00C00082860D0E069022858
:1015B00048D1002020490866FFF7FEF8054606E0FE
:1015C000FFF7FAF8401B022801D903203AE6194830
:1015D000006800F000700028F2D1206AB0F5803F6A
:1015E00007D11448406820F40030A168084311492D
:1015F0004860D4E9080108430E49496821F4741190
:1016000008430C49486001200B490866FFF7D4F8ED
:10161000054607E03DE0FFF7CFF8401B022801D95F
:1016200003200FE60348006800F000700028F2D0A5
:101630002FE00000001002400000424280044242BD
:1016400000700040002014490866FFF7B5F8054611
:1016500006E0FFF7B1F8401B022801D90320F1E5AD
:101660000E48006800F000700028F2D111E0E06937
:10167000012800D1E6E50948466806F48031206A71
:10168000814204D106F47011606A814201D00120C8
:10169000D8E50020D6E500000000424200100240DC
:1016A00070B504462546681EB0F1807F01D3012045
:1016B0000FE0681E4FF0E02148610F214FF0FF302E
:1016C00000F010FB00204FF0E02188610720086146
:1016D000002070BD00BFFEE7014608684069C0F306
:1016E0008020B0B16FF480600A6850610020086308
:1016F000202081F83D00002081F83E00086C40F079
:101700000400086400BF002081F83C0000BF0120F5
:1017100070470020FCE700002DE9F84304460D4621
:1017200090461E46E76A2068006840F480602168A1
:101730000860082F04D0012F02D017F5803F06D192
:101740002068006840F480702168086008E0206B21
:10175000112805D12068006840F480702168086075
:10176000434600224FF001112046009600F0E0F8B9
:1017700010B10120BDE8F8832069B0F5804F05D194
:10178000E8B240F00100216808613FE005F44070D4
:10179000F02141EAE01021680861334642462149C0
:1017A000204600F008F908B10120E3E7E8B221681B
:1017B0000861334642461B49891F204600F0FBF86A
:1017C00008B10120D6E700BF0020009020684069E2
:1017D000009020688069009000BF00BF206800680A
:1017E00040F4807021680860434600224FF00111E8
:1017F0002046009600F09CF808B10120BAE705F4F5
:101800004070F12141EAE010216808613346424608
:101810000449891F204600F0CEF808B10120A9E74D
:101820000020A7E7080001002DE9F84304460D4613
:1018300017469846E66A082E04D0012E02D016F507
:10184000803F06D12068006840F4807021680860FD
:1018500008E0206B122805D12068006840F48070F1
:10186000216808603B4600224FF001112046CDF868
:10187000008000F05DF810B10120BDE8F883206918
:10188000B0F5804F04D105F0FE002168086112E038
:1018900005F44070F02141EAE010216808614346F8
:1018A0003A460B49204600F086F808B10120E4E7EB
:1018B000E8B22168086143463A460549891F204637
:1018C00000F079F808B10120D7E70020D5E7000043
:1018D0000800010070B504460D46164620E020467B
:1018E000FFF7FAFE08B1012070BD681CC0B1FEF719
:1018F00063FF801BA84200D895B9002020632020F8
:1019000084F83D00002084F83E00206C40F0200068
:10191000206400BF002084F83C0000BF0120E3E702
:1019200020684069C0F380000028D8D00020DBE7A1
:101930002DE9F04104460D4617461E46DDF8188095
:101940001CE0701CD0B1FEF737FFA0EB0800B042DE
:1019500000D89EB900202063202084F83D0000209C
:1019600084F83E00206C40F02000206400BF00207E
:1019700084F83C0000BF0120BDE8F081C5F30740BA
:1019800001280AD120684069A9B20840A9B288425A
:1019900001D101200BE0002009E020688069A9B294
:1019A0000840A9B2884201D1012000E00020B842DD
:1019B000C7D00020E0E72DE9F04104460D46164669
:1019C0001F463DE020684069C0F38020E8B12068F0
:1019D000006840F40070216808606FF4806021683E
:1019E000486100202063202084F83D00002084F816
:1019F0003E00206C40F00400206400BF002084F80A
:101A00003C0000BF0120BDE8F081701CC0B1FEF7B2
:101A1000D3FEC01BB04200D896B90020206320201E
:101A200084F83D00002084F83E00206C40F0200047
:101A3000206400BF002084F83C0000BF0120E2E7E2
:101A4000C5F3074001280AD120684069A9B20840BF
:101A5000A9B2884201D101200BE0002009E02068F2
:101A60008069A9B20840A9B2884201D1012000E0F2
:101A700000200028A6D00020C5E770B504460D461A
:101A8000164632E020684069C0F30010A0B16FF044
:101A900010002168486100202063202084F83D0068
:101AA000002084F83E00206C206400BF002084F8F1
:101AB0003C0000BF012070BDFEF77EFE801BA842E7
:101AC00000D895B900202063202084F83D00002034
:101AD00084F83E00206C40F02000206400BF00200D
:101AE00084F83C0000BF0120E5E720684069C0F3AE
:101AF00080100028C6D00020DDE770B504460D46F2
:101B0000164620E02046FFF7E7FD08B1012070BD32
:101B1000681CC0B1FEF750FE801BA84200D895B9E2
:101B200000202063202084F83D00002084F83E003F
:101B3000206C40F02000206400BF002084F83C00AE
:101B400000BF0120E3E720684069C0F3C01000280F
:101B5000D8D00020DBE7000008B500BF134880693B
:101B600040F02000114988610846806900F020009B
:101B7000009000BF00BF00BF0846806940F0080029
:101B800088610846806900F00800009000BF00BF2F
:101B900000BF0846806940F00400886108468069FB
:101BA00000F00400009000BF00BF08BD001002401C
:101BB00010B50B480B4908600B48486000210948E4
:101BC0008160C1604FF48041016100214161816108
:101BD000C1610162FEF7F6FD08B1FEF748FC10BDD9
:101BE0000058004030000020A086010000BFFEE742
:101BF0007047704708B508490968C9084FF47A72F8
:101C0000B1FBF2F14143009100BF00BF00994A1EB1
:101C100000920029F9D108BD2C000020704710B5B2
:101C2000FFF724F910BD00B58FB0282105A8FEF7F5
:101C300080FA14216846FEF77CFA02200590012004
:101C4000099010200A9000200C9005A8FFF7F6FAE2
:101C500008B1FEF70CFC0F200090002001900290CC
:101C60000390049000216846FFF7C2F908B1FEF71F
:101C7000FEFB0FB000BD00001148006840F00100FD
:101C80000F490860084640680E4908400C49486002
:101C9000084600680C490840094908600846006881
:101CA00020F4802008600846406820F4FE00486068
:101CB0004FF41F008860C8030449086070470000A3
:101CC000001002400000FFF8FFFFF6FE08ED00E004
:101CD00000BFFEE702480068C0F302207047000022
:101CE0000CED00E010B5002804DB0A07130E054ACE
:101CF000135406E00A07140E034A00F00F031B1FDB
:101D0000D45410BD00E400E018ED00E002E008C883
:101D1000121F08C1002AFAD170477047002001E065
:101D200001C1121F002AFBD170470000FFF7AAF87B
:101D3000FFF779FFFFF710FFFFF73AFFFEF700FB11
:101D4000FEF714FA0149086000BFFEE7000000201A
:101D5000000000000000000001020304060708095B
:101D60000000000001020304881D0008000000209C
:101D7000300000000C1D0008B81D000830000020D5
:101D8000580400001C1D00080000000000000000B6
:101D90000000000000000000000000000000000043
:101DA0000000000000000000000000001000000023
:081DB000010000000024F40012
:04000005080000ED02
:00000001FF
