:020000040800F2
:100000007804002001010008231400081D100008D6
:10001000211400086D010008C5140008000000004C
:10002000000000000000000000000000271400088D
:10003000E902000800000000251400082914000847
:100040001B0100081B0100081B0100081B01000820
:100050001B0100081B0100081B0100081B01000810
:100060001B0100081B0100081B0100081B01000800
:100070001B0100081B0100081B0100081B010008F0
:100080001B0100081B0100081B0100081B010008E0
:100090001B0100081B0100081B0100081B010008D0
:1000A0001B0100081B0100081B0100081B010008C0
:1000B0001B0100081B0100081B0100081B010008B0
:1000C0001B0100081B0100081B0100081B010008A0
:1000D0001B0100081B0100081B0100081B01000890
:1000E0001B0100081B0100081B010008DFF80CD0F1
:1000F00000F02AF8004800470515000878040020A1
:100100000648804706480047FEE7FEE7FEE7FEE7B1
:10011000FEE7FEE7FEE7FEE7FEE7FEE77D140008E8
:10012000ED000008D2B201E000F8012B491EFBD21D
:1001300070470022F6E710B513460A4604461946F2
:10014000FFF7F0FF204610BD064C074D06E0E068C3
:1001500040F0010394E8070098471034AC42F6D30E
:10016000FFF7C8FF5415000874150008FEE70000EB
:1001700008B5012310494FF47A72012808D00228EB
:1001800009D003280AD004280B700AD0002009E007
:100190000B70102006E00B70202003E00B70302065
:1001A00000E04020487000920223034AB421034833
:1001B00000F064FB08BD00000400002024000020C3
:1001C000F8B5184F00254FF47A743D7001233A4674
:1001D000B4211548009400F051FB01237A1DB4218D
:1001E0001148009400F044FA7E1D3078982804D01D
:1001F000B570F570708840BAF8BD022038700123E0
:10020000084AB4210848009400F038FB054A082346
:10021000521DB4210448009400F02AFA204600F050
:1002200065F8E7E70400002024000020F8B5194F26
:1002300000264FF47A753E7001233A46B4211648E1
:10024000009500F01BFB01237A1DB4211248009594
:1002500000F00EFA7C1D2078982806D02670667073
:100260006078217840EA4100F8BD0220387001230F
:10027000084AB4210848009500F000FB054A08230D
:10028000521DB4210448009500F0F2F9284600F010
:100290002DF8E5E7040000202400002038B5104DBB
:1002A00000204FF47A74287001232A46B4210D48A7
:1002B000009400F0E3FA01236A1DB4210948009478
:1002C00000F0D6F9681D0078902808D8F42028702E
:1002D00001232A46B4210348009400F0CFFA38BD28
:1002E00004000020240000207047704770B50446C9
:1002F00000F0FEF80546601C02D004480078044473
:1003000000F0F6F8401BA042FAD370BD14000020A4
:100310002DE9F84FDFF8B891002409F1040A0AF139
:10032000040B23460F270BF1040EC9E00125A5405D
:100330002A40AA427DD1674ED1F804C0ACEB060832
:10034000B44532D014DCBCF1030F3AD009DCBCF167
:10035000000F2AD0BCF1010F1CD0BCF1020F31D12B
:100360001DE0BCF1110F17D0BCF1120F2AD119E01A
:10037000B8F5881F19D006DCB8F5803F15D0B8F560
:10038000801F1FD111E0B8F5001F0ED0B8F5041F73
:1003900018D10AE0CB6815E0CB681B1D12E0CB68D2
:1003A00008330FE0CB680C330CE08B682BB1012BCA
:1003B0004FF0080303D0456104E0042302E0056127
:1003C00000E00023FF2A01D8064601E000F1040600
:1003D0004FEA840501D9A5F12005D6F8008007FA77
:1003E00005FC28EA0C0803FA05F548EA0508C6F8F2
:1003F00000804D68ED0062D5374DAE6946F00106CC
:10040000AE61AD6924F0030605F001050095334D9A
:1004100006EB050CDCF80850A607360F07FA06F8BD
:1004200025EA0805DFF8B880404503D14FF0000801
:1004300017E044E0DFF8AC80404502D14FF00108FE
:100440000FE0DFF8A480404502D14FF0020808E039
:10045000DFF89880404502D14FF0030801E04FF0EB
:10046000040808FA06F848EA0508CCF808804D6840
:10047000D9F80060ED034D4601D5164300E09643E0
:100480002E604D68DAF80060AD03554601D516437D
:1004900000E096432E604D68DBF80060ED025D469B
:1004A00001D5164300E096432E604D68DEF80060EB
:1004B000AD02754601D5164300E096432E60641CDC
:1004C0000D682A46E5407FF431AFBDE8F88F0000A3
:1004D0000004014000001110001002400000014023
:1004E00000080140000C01400010014000140140D0
:1004F00001488068704700001400002070B50400B7
:100500001BD094F83D00002520B984F83C502046CB
:1005100000F04AFA242084F83D002068016821F0A8
:100520000101016000F090FB4D4A6168914201D8E1
:100530004C4900E04C49884201D2012070BD4B4932
:100540002368B0FBF1F15E6826F03F060E435E6063
:100550006368934206D94FF4967359434FF47A7304
:10056000B1FBF3F12368491C1E6A26F03F063143B4
:1005700019626168914210D84900401EB0FBF1F247
:10058000521CC2F30B02042A01D2042022E0B0FB69
:10059000F1F0401CC0F30B001CE0A368F3B301EBC7
:1005A000C10202EB0116421EB2FBF6F2521C42F4EB
:1005B0008042120549D093B301EBC10202EB011155
:1005C000401EB0FBF1F0401CC0F30B0040F4804033
:1005D00040F400402168CA694CF6FF739A43104307
:1005E000C861D4E90701084321680A6822F0C00203
:1005F00010430860D4E9030101432068826848F28F
:10060000FF339A4311438160D4E90501084321680F
:10061000CA6822F0FF021043C86001E00EE016E055
:100620002068016841F0010101602564202084F800
:100630003D00256384F83E50002070BD01EB41066B
:10064000421EB2FBF6F2521CB3E70120C2E701EBF7
:100650004101401EB0FBF1F0401CC0F30B00B7E7B6
:10066000A086010080841E0000093D0040420F006A
:100670002DE9F84F1F4690468A460446DDF828903B
:10068000FFF736FF054694F83D00202879D119235D
:10069000012277492046009500F0ACFD0028F5D1F5
:1006A00094F83C0001286CD0012084F83C002068BC
:1006B0000168C90703D1016841F0010101602068A8
:1006C000016821F400610160222084F83D001020BF
:1006D00084F83E0000262664C4F824806785608D77
:1006E00020856448E0622B464A465146204600F089
:1006F000ADFC00287ED1208D5F4F68B1012814D059
:100700000228206801681ED041F4806101602068E1
:100710004169806900909DE020684169816900918C
:10072000016841F40071016094E02068016821F4DF
:100730008061016072B62068416981690091016839
:1007400041F400710AE041F40061016072B6206872
:10075000416981690091016821F48061016062B69C
:1007600078E0032850D801280CD002284B464FF0DF
:1007700000023946204600950FD000F03BFDC8BB73
:1007800010E073E02A464946204600F0B2FD88BBDF
:1007900020680069616A087053E000F02BFD48BBD7
:1007A00072B61AE02068016821F48061016072B6B7
:1007B00020680069616A0870606A401C6062208D70
:1007C000401E2085608D401E60854B4600223946C4
:1007D0002046009500F00EFD60B92068016841F4E4
:1007E0000071016020680069616A0870606A401CDD
:1007F000606200E00EE0218D491E2185618D491E59
:10080000618562B621681AE02A464946204600F012
:1008100070FD10B10120BDE8F88F20680069616AA1
:100820000870606A401C6062218D491E2185618DBF
:10083000491E618521684A69D24352070AD4096971
:100840000170606A401C6062208D401E2085608DB2
:10085000401E6085208D002883D1202084F83D0033
:1008600084F83E6084F83C600020D4E70220D2E7A0
:10087000020010000000FFFF040001002DE9F84F06
:100880001F4690468A460446DDF82890FFF730FE62
:10089000054694F83D0020287FD1192301224049C4
:1008A0002046009500F0A6FC002876D194F83C0084
:1008B000012872D0012084F83C0020680168C90733
:1008C00003D1016841F0010101602068016821F451
:1008D00000610160212084F83D00102084F83E0072
:1008E00000262664C4F824806785608D20852D4805
:1008F000E0622B464A465146204600F011FC90B972
:10090000206841698069009036E02A4649462046C1
:1009100000F022FD50B1206C042804D12068016849
:1009200041F4007101600120BDE8F88F606A216820
:1009300000780861606A401C6062618D491E6185B3
:10094000218D491E89B2218522685369DB435B07EB
:100950000BD451B100781061606A401C6062608DF8
:10096000401E6085208D401E20852A46494620462F
:1009700000F01AFC0028CED1208D0028C5D154F8F3
:100980003D0B016841F400710160202004F81E094C
:10099000E67766770020C7E7FFE70220C4E700009C
:1009A000020010000000FFFF10B586B0002100918A
:1009B0000191029103910068104988421BD1104CAB
:1009C000A06940F00800A061A069694600F0080035
:1009D00004904FF440600090122001900320039097
:1009E0000848FFF795FCE06940F48000E061E069A9
:1009F00000F48000049006B010BD000000580040D4
:100A000000100240000C0140024881680278114445
:100A10008160704714000020074810B5016841F05C
:100A200010010160032000F067F8002000F006F8D4
:100A300000F024F8002010BD0020024070B50D4DDC
:100A400004464FF47A712878B1FBF0F00A4909683E
:100A5000B1FBF0F000F0CEFA48B9102C07D200221A
:100A60002146501E00F028F800206C6070BD012067
:100A700070BD000014000020200000200C4808B5C4
:100A8000816941F001018161816901F001010091F9
:100A9000C16941F08051C161C06900F0805000908F
:100AA0000448416821F0E06141F00071416008BDF7
:100AB0000010024000000140F0B40E4B1B680C46D1
:100AC000C3F30223C3F10705042D00D90425191D22
:100AD000072901D2002300E0DB1E012606FA05F1FA
:100AE000491E214099409E40761E16403143F0BC7D
:100AF00000F0E9BC0CED00E0064900F007020868D0
:100B00004FF6FF03184040EA0220034A10430860F2
:100B1000704700000CED00E00000FA052DE9F047F9
:100B20000F46050061D0434E306800F00700B84220
:100B300009D2306820F0070038433060306800F098
:100B40000700B84251D128683B4C810712D54007B5
:100B500003D5606840F4E06060602878000703D542
:100B6000606840F4605060606068A96820F0F00040
:100B7000084360602878C00728D06868012810D032
:100B80002168022810D0890700292EDA616821F037
:100B9000030101436160FFF7ABFC804641F28839F5
:100BA0000DE021688903EFE78901EDE7FFF7A0FC7D
:100BB000A0EB0801494502D90320BDE8F087606831
:100BC000696800F00C00B0EB810FEFD1306800F0E5
:100BD0000700B8420BD9306820F007003843306076
:100BE000306800F00700B84201D00120E5E728781E
:100BF000400705D56068E96820F4E060084360605C
:100C00002878000706D56068296920F4605040EA1A
:100C1000C100606000F028F86168084AC1F3031160
:100C2000515CC8400649086006480068FFF706FFA7
:100C30000020C2E700200240001002403C150008DE
:100C40002000002018000020044805490068496879
:100C5000044AC1F30221515CC840704720000020C3
:100C6000001002404C15000812A185B00FC98DE894
:100C70000F0014A0144A006804905168134801F052
:100C80000C03042B10D0082B0ED1C1F38343C903EE
:100C90001DF803000AD5516804AAC1F34041515C14
:100CA0000A4A5043B0FBF1F005B070470849484389
:100CB000FAE7000002030405060708090A0B0C0DF9
:100CC0000E0F1010010200000010024000127A0006
:100CD00000093D002DE9F84F040070D02078C04D88
:100CE000C00749D06868C0F38100012807D0686850
:100CF000C0F38100022809D16868C00306D52868BE
:100D0000800339D560680028E7D035E06068B0F529
:100D1000803F0BD010B1B0F5A02F11D0286820F47F
:100D200080302860286820F4802002E0286840F4A1
:100D300080302860606890B1FFF7DAFB06460AE071
:100D4000286840F480202860F0E700BFFFF7D0FB60
:100D5000801B642873D828688003F7D50CE0FFF760
:100D6000C7FB064605E000BFFFF7C2FB801B6428F7
:100D7000F0D828688003F7D420789A4E80074FF087
:100D800001094FF0000839D5686810F00C0F07D042
:100D90006868C0F38100022809D16868C00306D4DE
:100DA0002868800714D52069012808D110E020693F
:100DB000B0B1C6F80090FFF79BFB074605E00AE1DB
:100DC000FFF796FBC01B0228C4D828688007F7D518
:100DD0002868616920F0F80040EAC10028600DE051
:100DE000C6F80080FFF784FB074604E0FFF780FBAE
:100DF000C01B022823D828688007F7D42078000772
:100E00002CD57948A169D9B1C0F80090FFF770FBE3
:100E1000074604E0FFF76CFBC01B02280FD8686A86
:100E20008007F7D571484FF4FA510068B0FBF1F034
:100E3000009000BF0098411E0091FAD20EE080E0C1
:100E4000C0F80080FFF754FB074604E0FFF750FBB3
:100E5000C01B022875D8686A8007F7D4207840073D
:100E600060D5E8690027C00008D4E86940F08050E8
:100E7000E861E869012700F0805000905C48016853
:100E8000C90513D40168834641F480710160FFF7FE
:100E90002FFB824606E000BFFFF72AFBA0EB0A000B
:100EA00064284ED8DBF80000C005F5D5E0680128BD
:100EB0000AD008B1052813D0286A20F00100286262
:100EC000286A20F0040002E0286A40F0010028624D
:100ED000E06841F2883B98B1FFF70AFB82460BE0DD
:100EE000286A40F004002862EEE700BFFFF700FB2D
:100EF000A0EB0A0159455AD8286A8007F6D50CE0BC
:100F0000FFF7F6FA824605E0FFF7F2FAA0EB0A01D6
:100F100059454CD8286A8007F6D41FB1E86920F0FB
:100F20008050E861E06988B36968C1F381010229F2
:100F300044D00228C6F8608004D0FFF7D9FA0446EE
:100F400038E034E0FFF7D4FA074604E0FFF7D0FAC0
:100F5000C01B02282BD828688001F7D4206AB0F57E
:100F6000803F05D16868A16820F4003008436860BC
:100F7000D4E908010843696821F4741108436860E2
:100F8000C6F86090FFF7B4FA044606E025E000BF1B
:100F9000FFF7AEFA001B022809D828688001F7D5B0
:100FA0001BE000BFFFF7A4FA001B022802D90320B0
:100FB000BDE8F88F28688001F4D40EE00128F7D04E
:100FC0006868226A00F48031914204D1616A00F4B9
:100FD0007010884201D00120EAE70020E8E7000015
:100FE00000100240000042428004424220000020E3
:100FF0000070004010B5401EB0F1807F01D3012089
:1010000010BD4FF0E02460610F21601700F05BFA23
:101010000020A06107202061002010BDFEE70168CC
:101020004A69D24352050FD46FF480624A610021AD
:1010300040F8301F202242738173026942F004029B
:101040000261017301207047002070472DE9F84FBD
:101050000446C06A1E4692460D4621680A6842F45C
:1010600080620A60082807D0012805D010F5803F6B
:1010700002D0206B112804D12068016841F48071EE
:1010800001604FF001185346002241462046009669
:1010900000F0B0F8F0BB206908F10109B0F5804F0D
:1010A0000FD00620216800EAD51747F0F00008614C
:1010B0003346524608F10701204600F0CFF848BBFE
:1010C00003E0E8B240F001001BE02168E8B20861EB
:1010D000334652464946204600F0C0F8D0B9206851
:1010E000416981690091016841F480710160534652
:1010F000002241462046009600F07CF850B947F0A7
:10110000F10021680861334652464946204600F006
:10111000A5F800E001E0002800D00120BDE8F88F2C
:10112000F8B50446C06A1E460D461746082807D083
:10113000012805D010F5803F02D0206B122804D181
:101140002068016841F480710160134600224FF06D
:1011500001112046009600F04DF808BB2069B0F55B
:10116000804F0ED00620216800EAD51040F0F00034
:10117000086133463A460B49204600F06FF878B9CB
:1011800002E005F0FE0000E0E8B2216808610549D0
:1011900033463A46891F204600F060F8002800D008
:1011A0000120F8BD0800010070B516460D46044642
:1011B0000DE02046FFF733FF08B1012070BD681C29
:1011C00005D0FFF795F9801BA84207D835B12068F4
:1011D0004069C0434007ECD4002070BD002044F8B3
:1011E000300F20216173A073216941F0200121613A
:1011F0002073E2E72DE9F0471E4690460D4604466F
:10120000C1F30747DDF8209008E0701C06D0FFF717
:101210006FF9A0EB0900B0420FD876B12068012F1A
:1012200018D0806925EA00000004000C14D00021C9
:101230004145EAD00020BDE8F087002044F8300F97
:1012400020216173A073216941F020012161207385
:101250000120F0E74069E5E70121E9E72DE9F047E2
:101260009A4691460E46044600254FF02008C1F3E9
:10127000074725E020684069C043400514D4206832
:10128000016841F40071016021686FF48060486179
:10129000256384F83D8084F83E50206C40F00400C3
:1012A000206484F83C501FE0B9F1FF3F08D0FFF7FD
:1012B0001FF9A0EB0A0149450CD8B9F1000F09D07C
:1012C0002068012F13D0806926EA00000004000C7A
:1012D0000BD0CFE744F8305F84F80D80A573206908
:1012E00040F02000206125730120BDE8F0874069AF
:1012F000EAE72DE9F041002590460E4604462027F6
:1013000017E04069C043C0060CD454F8301B6FF09E
:101310001000486144F810596777A577206A206269
:10132000257717E0FFF7E4F8A0EB0800B04208D8F3
:101330003EB120684169C9434906E2D40020BDE8B6
:10134000F08144F8305F6773A573206940F0200096
:10135000206125730120F2E770B516460D4604465C
:101360000DE02046FFF75BFE08B1012070BD681C50
:1013700005D0FFF7BDF8801BA84207D835B120681B
:101380004069C0430006ECD4002070BD002044F842
:10139000300F20216173A073216941F02001216188
:1013A0002073E2E708B500BF0D48806940F00800EF
:1013B0000B4988610846806900F00800009000BF72
:1013C00000BF00BF0846806940F0040088610846FD
:1013D000806900F00400009000BF00BF08BD00005D
:1013E0000010024010B50B480B4908600B484860DC
:1013F000002109488160C1604FF4804101610021F2
:1014000041618161C1610162FFF778F808B1FEF7BF
:101410006CFF10BD0058004024000020801A060018
:10142000FEE7704770477047FFF7EEBA00B58FB020
:10143000282105A8FEF77DFE14216846FEF779FEF7
:10144000022005900120099010200A9000200C90A5
:1014500005A8FFF73FFC08B1FEF747FF0F200090FB
:101460000020019002900390049000216846FFF74D
:1014700055FB08B1FEF739FF0FB000BD0D480168FC
:1014800041F00101016041680B4A1140416001686F
:101490000A4A11400160016821F48021016041681D
:1014A00021F4FE0141604FF41F0181600449C00333
:1014B00008607047001002400000FFF8FFFFF6FED2
:1014C00008ED00E0FEE70907090E002804DB00F143
:1014D000E02080F80014704700F00F0000F1E020D9
:1014E00080F8141D704702E008C8121F08C1002AC6
:1014F000FAD170477047002001E001C1121F002A95
:10150000FBD17047FFF788FAFFF790FFFFF74AFF1C
:10151000FFF768FFFEF7C2FE0120FEF729FE07E095
:10152000FEF784FE03490880FEF74AFE0249088060
:10153000F6E700000000002002000020000000008C
:101540000000000001020304060708090000000073
:1015500001020304741500080000002024000000AC
:10156000E614000898150008240000205404000028
:10157000F614000800000000000000000000000059
:10158000000000000000000001000000100000004A
:08159000000000000024F4003B
:04000005080000ED02
:00000001FF
